{
  "transactions": [
    {
      "hash": "0x67166bc2ff35442ae21e23b4b7d4acdb7b37d12c90c05712d1545830f5cabcac",
      "transactionType": "CALL",
      "contractName": null,
      "contractAddress": "0x1b26203a2752557ecd4763a9a8a26119ac5e18e4",
      "function": "resolveMarket(uint256,uint8,bytes)",
      "arguments": [
        "1",
        "2",
        "0x"
      ],
      "transaction": {
        "from": "0xfc46da4cbabdca9f903863de571e03a39d9079ad",
        "to": "0x1b26203a2752557ecd4763a9a8a26119ac5e18e4",
        "gas": "0x1c92f",
        "value": "0x0",
        "input": "0x50294f900000000000000000000000000000000000000000000000000000000000000001000000000000000000000000000000000000000000000000000000000000000200000000000000000000000000000000000000000000000000000000000000600000000000000000000000000000000000000000000000000000000000000000",
        "nonce": "0x50",
        "chainId": "0x221"
      },
      "additionalContracts": [],
      "isFixedGasLimit": false
    },
    {
      "hash": "0x871d2de72666217adc71112e4586fec166359f9f37aaffe58813b97d039a1ffe",
      "transactionType": "CALL",
      "contractName": null,
      "contractAddress": "0x1b26203a2752557ecd4763a9a8a26119ac5e18e4",
      "function": "resolveMarket(uint256,uint8,bytes)",
      "arguments": [
        "2",
        "1",
        "0x"
      ],
      "transaction": {
        "from": "0xfc46da4cbabdca9f903863de571e03a39d9079ad",
        "to": "0x1b26203a2752557ecd4763a9a8a26119ac5e18e4",
        "gas": "0x1bcbe",
        "value": "0x0",
        "input": "0x50294f900000000000000000000000000000000000000000000000000000000000000002000000000000000000000000000000000000000000000000000000000000000100000000000000000000000000000000000000000000000000000000000000600000000000000000000000000000000000000000000000000000000000000000",
        "nonce": "0x51",
        "chainId": "0x221"
      },
      "additionalContracts": [],
      "isFixedGasLimit": false
    }
  ],
  "receipts": [
    {
      "status": "0x1",
      "cumulativeGasUsed": "0x14aff",
      "logs": [
        {
          "address": "0x1b26203a2752557ecd4763a9a8a26119ac5e18e4",
          "topics": [
            "0x13bfa3c09213a32e3e4e61fbacd90900cec1e99511766660189122444fdeec7d",
            "0x0000000000000000000000000000000000000000000000000000000000000001",
            "0x000000000000000000000000fc46da4cbabdca9f903863de571e03a39d9079ad"
          ],
          "data": "0x0000000000000000000000000000000000000000000000000000000000000002",
          "blockHash": "0x0b9030e96c6125377d2aa7c321b052bffe1f24bf0c66421de513be35573c7e43",
          "blockNumber": "0x54c8f23",
          "blockTimestamp": "0x696285c3",
          "transactionHash": "0x67166bc2ff35442ae21e23b4b7d4acdb7b37d12c90c05712d1545830f5cabcac",
          "transactionIndex": "0x0",
          "logIndex": "0x0",
          "removed": false
        }
      ],
      "logsBloom": "0x00000000000040000000000000000000000004000000002000000000000000000000000200000002000000000000000000000000000000000000000000040000000000000000000000000000000000000000000000040000000000000000000000000000000000000000000000000000000000000000000000000000000000000000000000010000000000000000000000000000000080000000100000000800000000000000000000000000000000000000000000000000000000000000000000000000000000000000000000000000000000000000000000000000000040000000000000000000000000000000000000000000000000000000000000000000",
      "type": "0x2",
      "transactionHash": "0x67166bc2ff35442ae21e23b4b7d4acdb7b37d12c90c05712d1545830f5cabcac",
      "transactionIndex": "0x0",
      "blockHash": "0x0b9030e96c6125377d2aa7c321b052bffe1f24bf0c66421de513be35573c7e43",
      "blockNumber": "0x54c8f23",
      "gasUsed": "0x14aff",
      "effectiveGasPrice": "0x3bbf07580",
      "from": "0xfc46da4cbabdca9f903863de571e03a39d9079ad",
      "to": "0x1b26203a2752557ecd4763a9a8a26119ac5e18e4",
      "contractAddress": null
    },
    {
      "status": "0x1",
      "cumulativeGasUsed": "0x3c03b",
      "logs": [
        {
          "address": "0x1b26203a2752557ecd4763a9a8a26119ac5e18e4",
          "topics": [
            "0x13bfa3c09213a32e3e4e61fbacd90900cec1e99511766660189122444fdeec7d",
            "0x0000000000000000000000000000000000000000000000000000000000000002",
            "0x000000000000000000000000fc46da4cbabdca9f903863de571e03a39d9079ad"
          ],
          "data": "0x0000000000000000000000000000000000000000000000000000000000000001",
          "blockHash": "0x64ede0b1a0368db63a39e737fed0f2a26066babfa6cb31e110c7efa356474a60",
          "blockNumber": "0x54c8f25",
          "blockTimestamp": "0x696285c4",
          "transactionHash": "0x871d2de72666217adc71112e4586fec166359f9f37aaffe58813b97d039a1ffe",
          "transactionIndex": "0x2",
          "logIndex": "0x6",
          "removed": false
        }
      ],
      "logsBloom": "0x04000000000040000000000000000000000004000000002000000000000000000000000200000002000000000000000000000000000000000000000000000000000000000000000000000000000000000000000000000000000000000000000000000000000000000000000000000000000000000000000000000000000000000000000000010000000000000000000000000000000080000000100000000800000000000000000000000100000000000000000000000000000000000000000000000000000000000000000000000000000000000000000000000000000000000000000000000000000000000000000000000000008000000000000000000000",
      "type": "0x2",
      "transactionHash": "0x871d2de72666217adc71112e4586fec166359f9f37aaffe58813b97d039a1ffe",
      "transactionIndex": "0x2",
      "blockHash": "0x64ede0b1a0368db63a39e737fed0f2a26066babfa6cb31e110c7efa356474a60",
      "blockNumber": "0x54c8f25",
      "gasUsed": "0x141fd",
      "effectiveGasPrice": "0x3bbf07580",
      "from": "0xfc46da4cbabdca9f903863de571e03a39d9079ad",
      "to": "0x1b26203a2752557ecd4763a9a8a26119ac5e18e4",
      "contractAddress": null
    }
  ],
  "libraries": [],
  "pending": [],
  "returns": {},
  "timestamp": 1768064455,
  "chain": 545,
  "commit": "bd37189"
}