{
  "transactions": [
    {
      "hash": "0xf6d46351c55d5ddd4fc16b81227f034cdd14cbf5f9fd78eecceed7005597bb86",
      "transactionType": "CALL",
      "contractName": null,
      "contractAddress": "0x40a0618897a09bdbe508a2c99e0d731da261aba7",
      "function": "withdraw(uint256)",
      "arguments": [
        "1"
      ],
      "transaction": {
        "from": "0x5a6472782a098230e04a891a78beee1b7d48e90c",
        "to": "0x40a0618897a09bdbe508a2c99e0d731da261aba7",
        "gas": "0x3b695",
        "value": "0x0",
        "input": "0x2e1a7d4d0000000000000000000000000000000000000000000000000000000000000001",
        "nonce": "0x55",
        "chainId": "0x221"
      },
      "additionalContracts": [],
      "isFixedGasLimit": false
    },
    {
      "hash": "0x40d2e4f1a23fb8a61e27099ca0279177971161016c1035b9fb6d706547e6bfc8",
      "transactionType": "CALL",
      "contractName": null,
      "contractAddress": "0x40a0618897a09bdbe508a2c99e0d731da261aba7",
      "function": "withdraw(uint256)",
      "arguments": [
        "2"
      ],
      "transaction": {
        "from": "0x5a6472782a098230e04a891a78beee1b7d48e90c",
        "to": "0x40a0618897a09bdbe508a2c99e0d731da261aba7",
        "gas": "0x339d3",
        "value": "0x0",
        "input": "0x2e1a7d4d0000000000000000000000000000000000000000000000000000000000000002",
        "nonce": "0x56",
        "chainId": "0x221"
      },
      "additionalContracts": [],
      "isFixedGasLimit": false
    },
    {
      "hash": "0xf881fd26f48f85d8c135e03a2e5c61766e03e8f73abd34da6b67cd4946a590d7",
      "transactionType": "CALL",
      "contractName": null,
      "contractAddress": "0x9fd6ccee1243eac173490323ed6b8b8e0c15e8e6",
      "function": "approve(address,uint256)",
      "arguments": [
        "0x39d85759032fe730abaCDF7aAc403e8E8BB47cAb",
        "500000000000000000000"
      ],
      "transaction": {
        "from": "0x5a6472782a098230e04a891a78beee1b7d48e90c",
        "to": "0x9fd6ccee1243eac173490323ed6b8b8e0c15e8e6",
        "gas": "0x1069d",
        "value": "0x0",
        "input": "0x095ea7b300000000000000000000000039d85759032fe730abacdf7aac403e8e8bb47cab00000000000000000000000000000000000000000000001b1ae4d6e2ef500000",
        "nonce": "0x57",
        "chainId": "0x221"
      },
      "additionalContracts": [],
      "isFixedGasLimit": false
    },
    {
      "hash": "0xfcf651f9d7623a6e13884ce3d1328961455517526b6d255309819accd9d1f52c",
      "transactionType": "CALL",
      "contractName": null,
      "contractAddress": "0x39d85759032fe730abacdf7aac403e8e8bb47cab",
      "function": "fundReserve(uint256)",
      "arguments": [
        "500000000000000000000"
      ],
      "transaction": {
        "from": "0x5a6472782a098230e04a891a78beee1b7d48e90c",
        "to": "0x39d85759032fe730abacdf7aac403e8e8bb47cab",
        "gas": "0x14551",
        "value": "0x0",
        "input": "0x75c5422400000000000000000000000000000000000000000000001b1ae4d6e2ef500000",
        "nonce": "0x58",
        "chainId": "0x221"
      },
      "additionalContracts": [],
      "isFixedGasLimit": false
    },
    {
      "hash": "0x1d81e024e50489b23bf6e325e1a61834b84aac9bd5f8b4da442941e5e3e96f1d",
      "transactionType": "CALL",
      "contractName": null,
      "contractAddress": "0x9fd6ccee1243eac173490323ed6b8b8e0c15e8e6",
      "function": "approve(address,uint256)",
      "arguments": [
        "0x14746b6F08e9512F755FbCC64e63f06397dA155F",
        "500000000000000000000"
      ],
      "transaction": {
        "from": "0x5a6472782a098230e04a891a78beee1b7d48e90c",
        "to": "0x9fd6ccee1243eac173490323ed6b8b8e0c15e8e6",
        "gas": "0x1069d",
        "value": "0x0",
        "input": "0x095ea7b300000000000000000000000014746b6f08e9512f755fbcc64e63f06397da155f00000000000000000000000000000000000000000000001b1ae4d6e2ef500000",
        "nonce": "0x59",
        "chainId": "0x221"
      },
      "additionalContracts": [],
      "isFixedGasLimit": false
    },
    {
      "hash": "0x8d6aa6baa73644b28b5dbe2d33288c21993bf2d929dfac98a1c63a9c28e49a9f",
      "transactionType": "CALL",
      "contractName": null,
      "contractAddress": "0x14746b6f08e9512f755fbcc64e63f06397da155f",
      "function": "fundReserve(uint256)",
      "arguments": [
        "500000000000000000000"
      ],
      "transaction": {
        "from": "0x5a6472782a098230e04a891a78beee1b7d48e90c",
        "to": "0x14746b6f08e9512f755fbcc64e63f06397da155f",
        "gas": "0x14551",
        "value": "0x0",
        "input": "0x75c5422400000000000000000000000000000000000000000000001b1ae4d6e2ef500000",
        "nonce": "0x5a",
        "chainId": "0x221"
      },
      "additionalContracts": [],
      "isFixedGasLimit": false
    },
    {
      "hash": "0x4e1eedfc0f6bd8f283cdb2ed8ed50aa2c65c04ca0fdec46e8bd8c4a77c3700e4",
      "transactionType": "CALL",
      "contractName": null,
      "contractAddress": "0x9fd6ccee1243eac173490323ed6b8b8e0c15e8e6",
      "function": "approve(address,uint256)",
      "arguments": [
        "0x89d5C59a281Da5BE624d3D592Ab9661B6B44451e",
        "500000000000000000000"
      ],
      "transaction": {
        "from": "0x5a6472782a098230e04a891a78beee1b7d48e90c",
        "to": "0x9fd6ccee1243eac173490323ed6b8b8e0c15e8e6",
        "gas": "0x1069d",
        "value": "0x0",
        "input": "0x095ea7b300000000000000000000000089d5c59a281da5be624d3d592ab9661b6b44451e00000000000000000000000000000000000000000000001b1ae4d6e2ef500000",
        "nonce": "0x5b",
        "chainId": "0x221"
      },
      "additionalContracts": [],
      "isFixedGasLimit": false
    },
    {
      "hash": "0xc904158600f71b07b720d4a5cbe58e5d795b6b2951b704f8b27690a913f06e43",
      "transactionType": "CALL",
      "contractName": null,
      "contractAddress": "0x89d5c59a281da5be624d3d592ab9661b6b44451e",
      "function": "fundReserve(uint256)",
      "arguments": [
        "500000000000000000000"
      ],
      "transaction": {
        "from": "0x5a6472782a098230e04a891a78beee1b7d48e90c",
        "to": "0x89d5c59a281da5be624d3d592ab9661b6b44451e",
        "gas": "0x14551",
        "value": "0x0",
        "input": "0x75c5422400000000000000000000000000000000000000000000001b1ae4d6e2ef500000",
        "nonce": "0x5c",
        "chainId": "0x221"
      },
      "additionalContracts": [],
      "isFixedGasLimit": false
    },
    {
      "hash": "0x4aa08e934f97c77c45d8d726f76ad994747b5941453fc68959f24a100f4b102d",
      "transactionType": "CALL",
      "contractName": null,
      "contractAddress": "0x9fd6ccee1243eac173490323ed6b8b8e0c15e8e6",
      "function": "approve(address,uint256)",
      "arguments": [
        "0xD7CbEC2D198357213b434E6b61CC4f80BB0feaCF",
        "100000000000000000000"
      ],
      "transaction": {
        "from": "0x5a6472782a098230e04a891a78beee1b7d48e90c",
        "to": "0x9fd6ccee1243eac173490323ed6b8b8e0c15e8e6",
        "gas": "0x1069d",
        "value": "0x0",
        "input": "0x095ea7b3000000000000000000000000d7cbec2d198357213b434e6b61cc4f80bb0feacf0000000000000000000000000000000000000000000000056bc75e2d63100000",
        "nonce": "0x5d",
        "chainId": "0x221"
      },
      "additionalContracts": [],
      "isFixedGasLimit": false
    },
    {
      "hash": "0x09b6356f683349808f0069025422ed3c6b878123b52775ab6043b8e825e019d3",
      "transactionType": "CALL",
      "contractName": null,
      "contractAddress": "0xd7cbec2d198357213b434e6b61cc4f80bb0feacf",
      "function": "deposit(uint256,uint256,uint256[3],bytes32)",
      "arguments": [
        "1",
        "100000000000000000000",
        "[3800, 3300, 2900]",
        "0x0000000000000000000000000000000000000000000000000000000000000000"
      ],
      "transaction": {
        "from": "0x5a6472782a098230e04a891a78beee1b7d48e90c",
        "to": "0xd7cbec2d198357213b434e6b61cc4f80bb0feacf",
        "gas": "0x9662d",
        "value": "0x0",
        "input": "0xe33e49bb00000000000000000000000000000000000000000000000000000000000000010000000000000000000000000000000000000000000000056bc75e2d631000000000000000000000000000000000000000000000000000000000000000000ed80000000000000000000000000000000000000000000000000000000000000ce40000000000000000000000000000000000000000000000000000000000000b540000000000000000000000000000000000000000000000000000000000000000",
        "nonce": "0x5e",
        "chainId": "0x221"
      },
      "additionalContracts": [],
      "isFixedGasLimit": false
    },
    {
      "hash": "0xd1e221a03886201ccc0525a09d29502a5441ce3100ef39972147d3ab7fff4669",
      "transactionType": "CALL",
      "contractName": null,
      "contractAddress": "0x9fd6ccee1243eac173490323ed6b8b8e0c15e8e6",
      "function": "approve(address,uint256)",
      "arguments": [
        "0xD7CbEC2D198357213b434E6b61CC4f80BB0feaCF",
        "100000000000000000000"
      ],
      "transaction": {
        "from": "0x5a6472782a098230e04a891a78beee1b7d48e90c",
        "to": "0x9fd6ccee1243eac173490323ed6b8b8e0c15e8e6",
        "gas": "0x1069d",
        "value": "0x0",
        "input": "0x095ea7b3000000000000000000000000d7cbec2d198357213b434e6b61cc4f80bb0feacf0000000000000000000000000000000000000000000000056bc75e2d63100000",
        "nonce": "0x5f",
        "chainId": "0x221"
      },
      "additionalContracts": [],
      "isFixedGasLimit": false
    },
    {
      "hash": "0x6c37d420508761a9627efd47a12253030edcf8a2021b12d99dc8dd188920749b",
      "transactionType": "CALL",
      "contractName": null,
      "contractAddress": "0xd7cbec2d198357213b434e6b61cc4f80bb0feacf",
      "function": "deposit(uint256,uint256,uint256[3],bytes32)",
      "arguments": [
        "2",
        "100000000000000000000",
        "[4200, 2800, 3000]",
        "0x0000000000000000000000000000000000000000000000000000000000000000"
      ],
      "transaction": {
        "from": "0x5a6472782a098230e04a891a78beee1b7d48e90c",
        "to": "0xd7cbec2d198357213b434e6b61cc4f80bb0feacf",
        "gas": "0x6a2c9",
        "value": "0x0",
        "input": "0xe33e49bb00000000000000000000000000000000000000000000000000000000000000020000000000000000000000000000000000000000000000056bc75e2d6310000000000000000000000000000000000000000000000000000000000000000010680000000000000000000000000000000000000000000000000000000000000af00000000000000000000000000000000000000000000000000000000000000bb80000000000000000000000000000000000000000000000000000000000000000",
        "nonce": "0x60",
        "chainId": "0x221"
      },
      "additionalContracts": [],
      "isFixedGasLimit": false
    }
  ],
  "receipts": [
    {
      "status": "0x1",
      "cumulativeGasUsed": "0x289f9",
      "logs": [
        {
          "address": "0x9fd6ccee1243eac173490323ed6b8b8e0c15e8e6",
          "topics": [
            "0xddf252ad1be2c89b69c2b068fc378daa952ba7f163c4a11628f55a4df523b3ef",
            "0x00000000000000000000000039d85759032fe730abacdf7aac403e8e8bb47cab",
            "0x00000000000000000000000040a0618897a09bdbe508a2c99e0d731da261aba7"
          ],
          "data": "0x000000000000000000000000000000000000000000000002c783a15c22470000",
          "blockHash": "0xc29a7cf754af03c6dd68aed5a17fdaa3f9056accb4881aa339901f71379c7ebb",
          "blockNumber": "0x5f05041",
          "blockTimestamp": "0x69b3e251",
          "transactionHash": "0xf6d46351c55d5ddd4fc16b81227f034cdd14cbf5f9fd78eecceed7005597bb86",
          "transactionIndex": "0x0",
          "logIndex": "0x0",
          "removed": false
        },
        {
          "address": "0x39d85759032fe730abacdf7aac403e8e8bb47cab",
          "topics": [
            "0x7084f5476618d8e60b11ef0d7d3f06914655adb8793e28ff7f018d4c76d505d5",
            "0x00000000000000000000000040a0618897a09bdbe508a2c99e0d731da261aba7"
          ],
          "data": "0x000000000000000000000000000000000000000000000002c783a15c22470000",
          "blockHash": "0xc29a7cf754af03c6dd68aed5a17fdaa3f9056accb4881aa339901f71379c7ebb",
          "blockNumber": "0x5f05041",
          "blockTimestamp": "0x69b3e251",
          "transactionHash": "0xf6d46351c55d5ddd4fc16b81227f034cdd14cbf5f9fd78eecceed7005597bb86",
          "transactionIndex": "0x0",
          "logIndex": "0x1",
          "removed": false
        },
        {
          "address": "0x9fd6ccee1243eac173490323ed6b8b8e0c15e8e6",
          "topics": [
            "0xddf252ad1be2c89b69c2b068fc378daa952ba7f163c4a11628f55a4df523b3ef",
            "0x00000000000000000000000014746b6f08e9512f755fbcc64e63f06397da155f",
            "0x00000000000000000000000040a0618897a09bdbe508a2c99e0d731da261aba7"
          ],
          "data": "0x000000000000000000000000000000000000000000000001c945ea6c651f0000",
          "blockHash": "0xc29a7cf754af03c6dd68aed5a17fdaa3f9056accb4881aa339901f71379c7ebb",
          "blockNumber": "0x5f05041",
          "blockTimestamp": "0x69b3e251",
          "transactionHash": "0xf6d46351c55d5ddd4fc16b81227f034cdd14cbf5f9fd78eecceed7005597bb86",
          "transactionIndex": "0x0",
          "logIndex": "0x2",
          "removed": false
        },
        {
          "address": "0x14746b6f08e9512f755fbcc64e63f06397da155f",
          "topics": [
            "0x7084f5476618d8e60b11ef0d7d3f06914655adb8793e28ff7f018d4c76d505d5",
            "0x00000000000000000000000040a0618897a09bdbe508a2c99e0d731da261aba7"
          ],
          "data": "0x000000000000000000000000000000000000000000000001c945ea6c651f0000",
          "blockHash": "0xc29a7cf754af03c6dd68aed5a17fdaa3f9056accb4881aa339901f71379c7ebb",
          "blockNumber": "0x5f05041",
          "blockTimestamp": "0x69b3e251",
          "transactionHash": "0xf6d46351c55d5ddd4fc16b81227f034cdd14cbf5f9fd78eecceed7005597bb86",
          "transactionIndex": "0x0",
          "logIndex": "0x3",
          "removed": false
        },
        {
          "address": "0x9fd6ccee1243eac173490323ed6b8b8e0c15e8e6",
          "topics": [
            "0xddf252ad1be2c89b69c2b068fc378daa952ba7f163c4a11628f55a4df523b3ef",
            "0x00000000000000000000000089d5c59a281da5be624d3d592ab9661b6b44451e",
            "0x00000000000000000000000040a0618897a09bdbe508a2c99e0d731da261aba7"
          ],
          "data": "0x000000000000000000000000000000000000000000000000dafdd264dbaa0000",
          "blockHash": "0xc29a7cf754af03c6dd68aed5a17fdaa3f9056accb4881aa339901f71379c7ebb",
          "blockNumber": "0x5f05041",
          "blockTimestamp": "0x69b3e251",
          "transactionHash": "0xf6d46351c55d5ddd4fc16b81227f034cdd14cbf5f9fd78eecceed7005597bb86",
          "transactionIndex": "0x0",
          "logIndex": "0x4",
          "removed": false
        },
        {
          "address": "0x89d5c59a281da5be624d3d592ab9661b6b44451e",
          "topics": [
            "0x7084f5476618d8e60b11ef0d7d3f06914655adb8793e28ff7f018d4c76d505d5",
            "0x00000000000000000000000040a0618897a09bdbe508a2c99e0d731da261aba7"
          ],
          "data": "0x000000000000000000000000000000000000000000000000dafdd264dbaa0000",
          "blockHash": "0xc29a7cf754af03c6dd68aed5a17fdaa3f9056accb4881aa339901f71379c7ebb",
          "blockNumber": "0x5f05041",
          "blockTimestamp": "0x69b3e251",
          "transactionHash": "0xf6d46351c55d5ddd4fc16b81227f034cdd14cbf5f9fd78eecceed7005597bb86",
          "transactionIndex": "0x0",
          "logIndex": "0x5",
          "removed": false
        },
        {
          "address": "0x9fd6ccee1243eac173490323ed6b8b8e0c15e8e6",
          "topics": [
            "0xddf252ad1be2c89b69c2b068fc378daa952ba7f163c4a11628f55a4df523b3ef",
            "0x00000000000000000000000040a0618897a09bdbe508a2c99e0d731da261aba7",
            "0x0000000000000000000000005a6472782a098230e04a891a78beee1b7d48e90c"
          ],
          "data": "0x0000000000000000000000000000000000000000000000056bc75e2d63100000",
          "blockHash": "0xc29a7cf754af03c6dd68aed5a17fdaa3f9056accb4881aa339901f71379c7ebb",
          "blockNumber": "0x5f05041",
          "blockTimestamp": "0x69b3e251",
          "transactionHash": "0xf6d46351c55d5ddd4fc16b81227f034cdd14cbf5f9fd78eecceed7005597bb86",
          "transactionIndex": "0x0",
          "logIndex": "0x6",
          "removed": false
        },
        {
          "address": "0x40a0618897a09bdbe508a2c99e0d731da261aba7",
          "topics": [
            "0x78c42d93b539654d49abadf8d324e5b8177c66f0c0b1adc5e07babb9e141135e",
            "0x0000000000000000000000000000000000000000000000000000000000000001",
            "0x0000000000000000000000005a6472782a098230e04a891a78beee1b7d48e90c"
          ],
          "data": "0x0000000000000000000000000000000000000000000000056bc75e2d63100000",
          "blockHash": "0xc29a7cf754af03c6dd68aed5a17fdaa3f9056accb4881aa339901f71379c7ebb",
          "blockNumber": "0x5f05041",
          "blockTimestamp": "0x69b3e251",
          "transactionHash": "0xf6d46351c55d5ddd4fc16b81227f034cdd14cbf5f9fd78eecceed7005597bb86",
          "transactionIndex": "0x0",
          "logIndex": "0x7",
          "removed": false
        }
      ],
      "logsBloom": "0x00000000000000000000000000000000000800000000000002000020000000000000000000000000000000000000000000020400000000000000c0000004008000000000000000000000000801100080000000000004000404000000000000800000000000000000000c00000000040000010000000000000000001000000010020000000000000020010000000000000000000000000000000000000000000000000000000400040000000200000080000000000000000000000000000000000200000200020000020000000000000000000400000002000000000000024000000000000000000000000000000800000000000000000000000000000c010000",
      "type": "0x2",
      "transactionHash": "0xf6d46351c55d5ddd4fc16b81227f034cdd14cbf5f9fd78eecceed7005597bb86",
      "transactionIndex": "0x0",
      "blockHash": "0xc29a7cf754af03c6dd68aed5a17fdaa3f9056accb4881aa339901f71379c7ebb",
      "blockNumber": "0x5f05041",
      "gasUsed": "0x289f9",
      "effectiveGasPrice": "0x3bbf07580",
      "from": "0x5a6472782a098230e04a891a78beee1b7d48e90c",
      "to": "0x40a0618897a09bdbe508a2c99e0d731da261aba7",
      "contractAddress": null
    },
    {
      "status": "0x1",
      "cumulativeGasUsed": "0xb391",
      "logs": [
        {
          "address": "0x9fd6ccee1243eac173490323ed6b8b8e0c15e8e6",
          "topics": [
            "0x8c5be1e5ebec7d5bd14f71427d1e84f3dd0314c0f7b2291e5b200ac8c7c3b925",
            "0x0000000000000000000000005a6472782a098230e04a891a78beee1b7d48e90c",
            "0x00000000000000000000000039d85759032fe730abacdf7aac403e8e8bb47cab"
          ],
          "data": "0x00000000000000000000000000000000000000000000001b1ae4d6e2ef500000",
          "blockHash": "0x45804fddaf9ed6a44b3b307b0c630cb79c0dc82db11b55d049a099e9f8d962f1",
          "blockNumber": "0x5f05ed1",
          "blockTimestamp": "0x69b3e99a",
          "transactionHash": "0xf881fd26f48f85d8c135e03a2e5c61766e03e8f73abd34da6b67cd4946a590d7",
          "transactionIndex": "0x0",
          "logIndex": "0x0",
          "removed": false
        }
      ],
      "logsBloom": "0x00000000000000000000000000000000000000000000000002000000000000000000000000000000000000000000000000020000000000000000000000200000000000000000000000000000001000000000000000000000000000000000000000000000000000000000000000000000000100000000000000000000000000000200000000000000000000000000000000000000000000000000000000000000020000000004000000000000000000800000000000000000000000000000000000000000000000000000000000000000000000000000000000000000000200000010000000000000000000000000000000000000000000000000000004000000",
      "type": "0x2",
      "transactionHash": "0xf881fd26f48f85d8c135e03a2e5c61766e03e8f73abd34da6b67cd4946a590d7",
      "transactionIndex": "0x0",
      "blockHash": "0x45804fddaf9ed6a44b3b307b0c630cb79c0dc82db11b55d049a099e9f8d962f1",
      "blockNumber": "0x5f05ed1",
      "gasUsed": "0xb391",
      "effectiveGasPrice": "0x3bbf07580",
      "from": "0x5a6472782a098230e04a891a78beee1b7d48e90c",
      "to": "0x9fd6ccee1243eac173490323ed6b8b8e0c15e8e6",
      "contractAddress": null
    },
    {
      "status": "0x1",
      "cumulativeGasUsed": "0x19202",
      "logs": [
        {
          "address": "0x9fd6ccee1243eac173490323ed6b8b8e0c15e8e6",
          "topics": [
            "0xddf252ad1be2c89b69c2b068fc378daa952ba7f163c4a11628f55a4df523b3ef",
            "0x0000000000000000000000005a6472782a098230e04a891a78beee1b7d48e90c",
            "0x00000000000000000000000039d85759032fe730abacdf7aac403e8e8bb47cab"
          ],
          "data": "0x00000000000000000000000000000000000000000000001b1ae4d6e2ef500000",
          "blockHash": "0x45804fddaf9ed6a44b3b307b0c630cb79c0dc82db11b55d049a099e9f8d962f1",
          "blockNumber": "0x5f05ed1",
          "blockTimestamp": "0x69b3e99a",
          "transactionHash": "0xfcf651f9d7623a6e13884ce3d1328961455517526b6d255309819accd9d1f52c",
          "transactionIndex": "0x1",
          "logIndex": "0x1",
          "removed": false
        }
      ],
      "logsBloom": "0x00000000000000000000000000000000000000000000000002000000000000000000000000000000000000000000000000020000000000000000000000000000000000000000000000000008001000000000000000000000000000000000000000000000000000000000000000000000000100000000000000000010000000000200000000000000000000000000000000000000000000000000000000000000000000000004000000000000000000800000000000000000000000000000000000000002000000000000000000000000000000000000000000000000000200000000000000000000000000000000000000000000000000000000000004000000",
      "type": "0x2",
      "transactionHash": "0xfcf651f9d7623a6e13884ce3d1328961455517526b6d255309819accd9d1f52c",
      "transactionIndex": "0x1",
      "blockHash": "0x45804fddaf9ed6a44b3b307b0c630cb79c0dc82db11b55d049a099e9f8d962f1",
      "blockNumber": "0x5f05ed1",
      "gasUsed": "0xde71",
      "effectiveGasPrice": "0x3bbf07580",
      "from": "0x5a6472782a098230e04a891a78beee1b7d48e90c",
      "to": "0x39d85759032fe730abacdf7aac403e8e8bb47cab",
      "contractAddress": null
    },
    {
      "status": "0x1",
      "cumulativeGasUsed": "0x24593",
      "logs": [
        {
          "address": "0x9fd6ccee1243eac173490323ed6b8b8e0c15e8e6",
          "topics": [
            "0x8c5be1e5ebec7d5bd14f71427d1e84f3dd0314c0f7b2291e5b200ac8c7c3b925",
            "0x0000000000000000000000005a6472782a098230e04a891a78beee1b7d48e90c",
            "0x00000000000000000000000014746b6f08e9512f755fbcc64e63f06397da155f"
          ],
          "data": "0x00000000000000000000000000000000000000000000001b1ae4d6e2ef500000",
          "blockHash": "0x45804fddaf9ed6a44b3b307b0c630cb79c0dc82db11b55d049a099e9f8d962f1",
          "blockNumber": "0x5f05ed1",
          "blockTimestamp": "0x69b3e99a",
          "transactionHash": "0x1d81e024e50489b23bf6e325e1a61834b84aac9bd5f8b4da442941e5e3e96f1d",
          "transactionIndex": "0x2",
          "logIndex": "0x2",
          "removed": false
        }
      ],
      "logsBloom": "0x00000000000000000000000000000000000000000000000000000000000000000000000000000000000000000000000000020400000000000000000000200000000000000000000000000000001000000000000000000000000000000000000000000000000000000000000000000000000000000000000000000000000000000200000000000000000000000000000000000000000000000000000000000000020000000004000000000002000000800000000000000000000000000000000000000000000000000000000000000000000000000000020000000000000000000010000000000000000000000000000000000000000000000000000004000000",
      "type": "0x2",
      "transactionHash": "0x1d81e024e50489b23bf6e325e1a61834b84aac9bd5f8b4da442941e5e3e96f1d",
      "transactionIndex": "0x2",
      "blockHash": "0x45804fddaf9ed6a44b3b307b0c630cb79c0dc82db11b55d049a099e9f8d962f1",
      "blockNumber": "0x5f05ed1",
      "gasUsed": "0xb391",
      "effectiveGasPrice": "0x3bbf07580",
      "from": "0x5a6472782a098230e04a891a78beee1b7d48e90c",
      "to": "0x9fd6ccee1243eac173490323ed6b8b8e0c15e8e6",
      "contractAddress": null
    },
    {
      "status": "0x1",
      "cumulativeGasUsed": "0x32404",
      "logs": [
        {
          "address": "0x9fd6ccee1243eac173490323ed6b8b8e0c15e8e6",
          "topics": [
            "0xddf252ad1be2c89b69c2b068fc378daa952ba7f163c4a11628f55a4df523b3ef",
            "0x0000000000000000000000005a6472782a098230e04a891a78beee1b7d48e90c",
            "0x00000000000000000000000014746b6f08e9512f755fbcc64e63f06397da155f"
          ],
          "data": "0x00000000000000000000000000000000000000000000001b1ae4d6e2ef500000",
          "blockHash": "0x45804fddaf9ed6a44b3b307b0c630cb79c0dc82db11b55d049a099e9f8d962f1",
          "blockNumber": "0x5f05ed1",
          "blockTimestamp": "0x69b3e99a",
          "transactionHash": "0x8d6aa6baa73644b28b5dbe2d33288c21993bf2d929dfac98a1c63a9c28e49a9f",
          "transactionIndex": "0x3",
          "logIndex": "0x3",
          "removed": false
        }
      ],
      "logsBloom": "0x00000000000000000000000000000000000000000000000000000000000000000000000000000000000000000000000000020400000000000000000000000000000000000000000000000008001000000000000000000000000000000000000000000000000000000000000000000000000000000000000000000010000000000200000000000000000000000000000000000000000000000000000000000000000000000004000000000002000000800000000000000000000000000000000000000002000000000000000000000000000000000000020000000000000000000000000000000000000000000000000000000000000000000000000004000000",
      "type": "0x2",
      "transactionHash": "0x8d6aa6baa73644b28b5dbe2d33288c21993bf2d929dfac98a1c63a9c28e49a9f",
      "transactionIndex": "0x3",
      "blockHash": "0x45804fddaf9ed6a44b3b307b0c630cb79c0dc82db11b55d049a099e9f8d962f1",
      "blockNumber": "0x5f05ed1",
      "gasUsed": "0xde71",
      "effectiveGasPrice": "0x3bbf07580",
      "from": "0x5a6472782a098230e04a891a78beee1b7d48e90c",
      "to": "0x14746b6f08e9512f755fbcc64e63f06397da155f",
      "contractAddress": null
    },
    {
      "status": "0x1",
      "cumulativeGasUsed": "0x3d795",
      "logs": [
        {
          "address": "0x9fd6ccee1243eac173490323ed6b8b8e0c15e8e6",
          "topics": [
            "0x8c5be1e5ebec7d5bd14f71427d1e84f3dd0314c0f7b2291e5b200ac8c7c3b925",
            "0x0000000000000000000000005a6472782a098230e04a891a78beee1b7d48e90c",
            "0x00000000000000000000000089d5c59a281da5be624d3d592ab9661b6b44451e"
          ],
          "data": "0x00000000000000000000000000000000000000000000001b1ae4d6e2ef500000",
          "blockHash": "0x45804fddaf9ed6a44b3b307b0c630cb79c0dc82db11b55d049a099e9f8d962f1",
          "blockNumber": "0x5f05ed1",
          "blockTimestamp": "0x69b3e99a",
          "transactionHash": "0x4e1eedfc0f6bd8f283cdb2ed8ed50aa2c65c04ca0fdec46e8bd8c4a77c3700e4",
          "transactionIndex": "0x4",
          "logIndex": "0x4",
          "removed": false
        }
      ],
      "logsBloom": "0x00000000000000000000000000000000000000000000000000000000000000000000000000000000000000000000000000020000000000000000400000200000000000000000000000000000001000000000000000000000000000000000000000000000000000000000000000000000000000000000000000000000000000000200000000000000200000000000000000000000000000000000000000000000020000000004000000000000000000800000000000000000000000000000000000000000000000000000000000000000000000000000000000000000000000000010000000000000000000000008000000000000000000000000000004000000",
      "type": "0x2",
      "transactionHash": "0x4e1eedfc0f6bd8f283cdb2ed8ed50aa2c65c04ca0fdec46e8bd8c4a77c3700e4",
      "transactionIndex": "0x4",
      "blockHash": "0x45804fddaf9ed6a44b3b307b0c630cb79c0dc82db11b55d049a099e9f8d962f1",
      "blockNumber": "0x5f05ed1",
      "gasUsed": "0xb391",
      "effectiveGasPrice": "0x3bbf07580",
      "from": "0x5a6472782a098230e04a891a78beee1b7d48e90c",
      "to": "0x9fd6ccee1243eac173490323ed6b8b8e0c15e8e6",
      "contractAddress": null
    },
    {
      "status": "0x1",
      "cumulativeGasUsed": "0x4b606",
      "logs": [
        {
          "address": "0x9fd6ccee1243eac173490323ed6b8b8e0c15e8e6",
          "topics": [
            "0xddf252ad1be2c89b69c2b068fc378daa952ba7f163c4a11628f55a4df523b3ef",
            "0x0000000000000000000000005a6472782a098230e04a891a78beee1b7d48e90c",
            "0x00000000000000000000000089d5c59a281da5be624d3d592ab9661b6b44451e"
          ],
          "data": "0x00000000000000000000000000000000000000000000001b1ae4d6e2ef500000",
          "blockHash": "0x45804fddaf9ed6a44b3b307b0c630cb79c0dc82db11b55d049a099e9f8d962f1",
          "blockNumber": "0x5f05ed1",
          "blockTimestamp": "0x69b3e99a",
          "transactionHash": "0xc904158600f71b07b720d4a5cbe58e5d795b6b2951b704f8b27690a913f06e43",
          "transactionIndex": "0x5",
          "logIndex": "0x5",
          "removed": false
        }
      ],
      "logsBloom": "0x00000000000000000000000000000000000000000000000000000000000000000000000000000000000000000000000000020000000000000000400000000000000000000000000000000008001000000000000000000000000000000000000000000000000000000000000000000000000000000000000000000010000000000200000000000000200000000000000000000000000000000000000000000000000000000004000000000000000000800000000000000000000000000000000000000002000000000000000000000000000000000000000000000000000000000000000000000000000000000008000000000000000000000000000004000000",
      "type": "0x2",
      "transactionHash": "0xc904158600f71b07b720d4a5cbe58e5d795b6b2951b704f8b27690a913f06e43",
      "transactionIndex": "0x5",
      "blockHash": "0x45804fddaf9ed6a44b3b307b0c630cb79c0dc82db11b55d049a099e9f8d962f1",
      "blockNumber": "0x5f05ed1",
      "gasUsed": "0xde71",
      "effectiveGasPrice": "0x3bbf07580",
      "from": "0x5a6472782a098230e04a891a78beee1b7d48e90c",
      "to": "0x89d5c59a281da5be624d3d592ab9661b6b44451e",
      "contractAddress": null
    },
    {
      "status": "0x1",
      "cumulativeGasUsed": "0x56997",
      "logs": [
        {
          "address": "0x9fd6ccee1243eac173490323ed6b8b8e0c15e8e6",
          "topics": [
            "0x8c5be1e5ebec7d5bd14f71427d1e84f3dd0314c0f7b2291e5b200ac8c7c3b925",
            "0x0000000000000000000000005a6472782a098230e04a891a78beee1b7d48e90c",
            "0x000000000000000000000000d7cbec2d198357213b434e6b61cc4f80bb0feacf"
          ],
          "data": "0x0000000000000000000000000000000000000000000000056bc75e2d63100000",
          "blockHash": "0x45804fddaf9ed6a44b3b307b0c630cb79c0dc82db11b55d049a099e9f8d962f1",
          "blockNumber": "0x5f05ed1",
          "blockTimestamp": "0x69b3e99a",
          "transactionHash": "0x4aa08e934f97c77c45d8d726f76ad994747b5941453fc68959f24a100f4b102d",
          "transactionIndex": "0x6",
          "logIndex": "0x6",
          "removed": false
        }
      ],
      "logsBloom": "0x00000400000000000000000000000000000000000000000000000000000000000000000000000000000000000000000000020000000000000000000000200000000000000000000000000000001000000000040000000000000000000000000000000000000000000000000000000000000000080000000000000000000000000200000000000000000000000000000000000000000000000000000000000000020000000004000000000000000000800000000000000000000000000000000000000000000000000000000000000000000000000000000000000000000000000010000000000000000000000000000000000000000000000000000004000000",
      "type": "0x2",
      "transactionHash": "0x4aa08e934f97c77c45d8d726f76ad994747b5941453fc68959f24a100f4b102d",
      "transactionIndex": "0x6",
      "blockHash": "0x45804fddaf9ed6a44b3b307b0c630cb79c0dc82db11b55d049a099e9f8d962f1",
      "blockNumber": "0x5f05ed1",
      "gasUsed": "0xb391",
      "effectiveGasPrice": "0x3bbf07580",
      "from": "0x5a6472782a098230e04a891a78beee1b7d48e90c",
      "to": "0x9fd6ccee1243eac173490323ed6b8b8e0c15e8e6",
      "contractAddress": null
    },
    {
      "status": "0x1",
      "cumulativeGasUsed": "0xc379f",
      "logs": [
        {
          "address": "0x9fd6ccee1243eac173490323ed6b8b8e0c15e8e6",
          "topics": [
            "0xddf252ad1be2c89b69c2b068fc378daa952ba7f163c4a11628f55a4df523b3ef",
            "0x0000000000000000000000005a6472782a098230e04a891a78beee1b7d48e90c",
            "0x000000000000000000000000d7cbec2d198357213b434e6b61cc4f80bb0feacf"
          ],
          "data": "0x0000000000000000000000000000000000000000000000056bc75e2d63100000",
          "blockHash": "0x45804fddaf9ed6a44b3b307b0c630cb79c0dc82db11b55d049a099e9f8d962f1",
          "blockNumber": "0x5f05ed1",
          "blockTimestamp": "0x69b3e99a",
          "transactionHash": "0x09b6356f683349808f0069025422ed3c6b878123b52775ab6043b8e825e019d3",
          "transactionIndex": "0x7",
          "logIndex": "0x7",
          "removed": false
        },
        {
          "address": "0x9fd6ccee1243eac173490323ed6b8b8e0c15e8e6",
          "topics": [
            "0x8c5be1e5ebec7d5bd14f71427d1e84f3dd0314c0f7b2291e5b200ac8c7c3b925",
            "0x000000000000000000000000d7cbec2d198357213b434e6b61cc4f80bb0feacf",
            "0x00000000000000000000000039d85759032fe730abacdf7aac403e8e8bb47cab"
          ],
          "data": "0x0000000000000000000000000000000000000000000000020f5b1eaad8d80000",
          "blockHash": "0x45804fddaf9ed6a44b3b307b0c630cb79c0dc82db11b55d049a099e9f8d962f1",
          "blockNumber": "0x5f05ed1",
          "blockTimestamp": "0x69b3e99a",
          "transactionHash": "0x09b6356f683349808f0069025422ed3c6b878123b52775ab6043b8e825e019d3",
          "transactionIndex": "0x7",
          "logIndex": "0x8",
          "removed": false
        },
        {
          "address": "0x9fd6ccee1243eac173490323ed6b8b8e0c15e8e6",
          "topics": [
            "0xddf252ad1be2c89b69c2b068fc378daa952ba7f163c4a11628f55a4df523b3ef",
            "0x000000000000000000000000d7cbec2d198357213b434e6b61cc4f80bb0feacf",
            "0x00000000000000000000000039d85759032fe730abacdf7aac403e8e8bb47cab"
          ],
          "data": "0x0000000000000000000000000000000000000000000000020f5b1eaad8d80000",
          "blockHash": "0x45804fddaf9ed6a44b3b307b0c630cb79c0dc82db11b55d049a099e9f8d962f1",
          "blockNumber": "0x5f05ed1",
          "blockTimestamp": "0x69b3e99a",
          "transactionHash": "0x09b6356f683349808f0069025422ed3c6b878123b52775ab6043b8e825e019d3",
          "transactionIndex": "0x7",
          "logIndex": "0x9",
          "removed": false
        },
        {
          "address": "0x39d85759032fe730abacdf7aac403e8e8bb47cab",
          "topics": [
            "0x2da466a7b24304f47e87fa2e1e5a81b9831ce54fec19055ce277ca2f39ba42c4",
            "0x000000000000000000000000d7cbec2d198357213b434e6b61cc4f80bb0feacf"
          ],
          "data": "0x0000000000000000000000000000000000000000000000020f5b1eaad8d80000",
          "blockHash": "0x45804fddaf9ed6a44b3b307b0c630cb79c0dc82db11b55d049a099e9f8d962f1",
          "blockNumber": "0x5f05ed1",
          "blockTimestamp": "0x69b3e99a",
          "transactionHash": "0x09b6356f683349808f0069025422ed3c6b878123b52775ab6043b8e825e019d3",
          "transactionIndex": "0x7",
          "logIndex": "0xa",
          "removed": false
        },
        {
          "address": "0x9fd6ccee1243eac173490323ed6b8b8e0c15e8e6",
          "topics": [
            "0x8c5be1e5ebec7d5bd14f71427d1e84f3dd0314c0f7b2291e5b200ac8c7c3b925",
            "0x000000000000000000000000d7cbec2d198357213b434e6b61cc4f80bb0feacf",
            "0x00000000000000000000000014746b6f08e9512f755fbcc64e63f06397da155f"
          ],
          "data": "0x000000000000000000000000000000000000000000000001c9f78d2893e40000",
          "blockHash": "0x45804fddaf9ed6a44b3b307b0c630cb79c0dc82db11b55d049a099e9f8d962f1",
          "blockNumber": "0x5f05ed1",
          "blockTimestamp": "0x69b3e99a",
          "transactionHash": "0x09b6356f683349808f0069025422ed3c6b878123b52775ab6043b8e825e019d3",
          "transactionIndex": "0x7",
          "logIndex": "0xb",
          "removed": false
        },
        {
          "address": "0x9fd6ccee1243eac173490323ed6b8b8e0c15e8e6",
          "topics": [
            "0xddf252ad1be2c89b69c2b068fc378daa952ba7f163c4a11628f55a4df523b3ef",
            "0x000000000000000000000000d7cbec2d198357213b434e6b61cc4f80bb0feacf",
            "0x00000000000000000000000014746b6f08e9512f755fbcc64e63f06397da155f"
          ],
          "data": "0x000000000000000000000000000000000000000000000001c9f78d2893e40000",
          "blockHash": "0x45804fddaf9ed6a44b3b307b0c630cb79c0dc82db11b55d049a099e9f8d962f1",
          "blockNumber": "0x5f05ed1",
          "blockTimestamp": "0x69b3e99a",
          "transactionHash": "0x09b6356f683349808f0069025422ed3c6b878123b52775ab6043b8e825e019d3",
          "transactionIndex": "0x7",
          "logIndex": "0xc",
          "removed": false
        },
        {
          "address": "0x14746b6f08e9512f755fbcc64e63f06397da155f",
          "topics": [
            "0x2da466a7b24304f47e87fa2e1e5a81b9831ce54fec19055ce277ca2f39ba42c4",
            "0x000000000000000000000000d7cbec2d198357213b434e6b61cc4f80bb0feacf"
          ],
          "data": "0x000000000000000000000000000000000000000000000001c9f78d2893e40000",
          "blockHash": "0x45804fddaf9ed6a44b3b307b0c630cb79c0dc82db11b55d049a099e9f8d962f1",
          "blockNumber": "0x5f05ed1",
          "blockTimestamp": "0x69b3e99a",
          "transactionHash": "0x09b6356f683349808f0069025422ed3c6b878123b52775ab6043b8e825e019d3",
          "transactionIndex": "0x7",
          "logIndex": "0xd",
          "removed": false
        },
        {
          "address": "0x9fd6ccee1243eac173490323ed6b8b8e0c15e8e6",
          "topics": [
            "0x8c5be1e5ebec7d5bd14f71427d1e84f3dd0314c0f7b2291e5b200ac8c7c3b925",
            "0x000000000000000000000000d7cbec2d198357213b434e6b61cc4f80bb0feacf",
            "0x00000000000000000000000089d5c59a281da5be624d3d592ab9661b6b44451e"
          ],
          "data": "0x0000000000000000000000000000000000000000000000019274b259f6540000",
          "blockHash": "0x45804fddaf9ed6a44b3b307b0c630cb79c0dc82db11b55d049a099e9f8d962f1",
          "blockNumber": "0x5f05ed1",
          "blockTimestamp": "0x69b3e99a",
          "transactionHash": "0x09b6356f683349808f0069025422ed3c6b878123b52775ab6043b8e825e019d3",
          "transactionIndex": "0x7",
          "logIndex": "0xe",
          "removed": false
        },
        {
          "address": "0x9fd6ccee1243eac173490323ed6b8b8e0c15e8e6",
          "topics": [
            "0xddf252ad1be2c89b69c2b068fc378daa952ba7f163c4a11628f55a4df523b3ef",
            "0x000000000000000000000000d7cbec2d198357213b434e6b61cc4f80bb0feacf",
            "0x00000000000000000000000089d5c59a281da5be624d3d592ab9661b6b44451e"
          ],
          "data": "0x0000000000000000000000000000000000000000000000019274b259f6540000",
          "blockHash": "0x45804fddaf9ed6a44b3b307b0c630cb79c0dc82db11b55d049a099e9f8d962f1",
          "blockNumber": "0x5f05ed1",
          "blockTimestamp": "0x69b3e99a",
          "transactionHash": "0x09b6356f683349808f0069025422ed3c6b878123b52775ab6043b8e825e019d3",
          "transactionIndex": "0x7",
          "logIndex": "0xf",
          "removed": false
        },
        {
          "address": "0x89d5c59a281da5be624d3d592ab9661b6b44451e",
          "topics": [
            "0x2da466a7b24304f47e87fa2e1e5a81b9831ce54fec19055ce277ca2f39ba42c4",
            "0x000000000000000000000000d7cbec2d198357213b434e6b61cc4f80bb0feacf"
          ],
          "data": "0x0000000000000000000000000000000000000000000000019274b259f6540000",
          "blockHash": "0x45804fddaf9ed6a44b3b307b0c630cb79c0dc82db11b55d049a099e9f8d962f1",
          "blockNumber": "0x5f05ed1",
          "blockTimestamp": "0x69b3e99a",
          "transactionHash": "0x09b6356f683349808f0069025422ed3c6b878123b52775ab6043b8e825e019d3",
          "transactionIndex": "0x7",
          "logIndex": "0x10",
          "removed": false
        },
        {
          "address": "0xd7cbec2d198357213b434e6b61cc4f80bb0feacf",
          "topics": [
            "0xe012f4054d7fcf4a85897242fae97b3ccda9776e8f9194317139b56629133181",
            "0x0000000000000000000000000000000000000000000000000000000000000001",
            "0x0000000000000000000000005a6472782a098230e04a891a78beee1b7d48e90c"
          ],
          "data": "0x0000000000000000000000000000000000000000000000056bc75e2d631000000000000000000000000000000000000000000000000000000000000000000ed80000000000000000000000000000000000000000000000000000000000000ce40000000000000000000000000000000000000000000000000000000000000b54",
          "blockHash": "0x45804fddaf9ed6a44b3b307b0c630cb79c0dc82db11b55d049a099e9f8d962f1",
          "blockNumber": "0x5f05ed1",
          "blockTimestamp": "0x69b3e99a",
          "transactionHash": "0x09b6356f683349808f0069025422ed3c6b878123b52775ab6043b8e825e019d3",
          "transactionIndex": "0x7",
          "logIndex": "0x11",
          "removed": false
        }
      ],
      "logsBloom": "0x00000400000000000000000000000000000000000000000002000000000000000000000000000000000000000000000000020400200000000000c0000024008000000000000000000000000801100080000004000004000000000000000020000000000100000000000800000000040000010008000000000000001000020000020000000000000020000000000000000100000000000000000000000008000002000000000400400000000200000080000000000100000000000000000000000000000200000000020000000000000000000400000002000000000000024000005000000000000000000000000800000000000000000000000000000c000000",
      "type": "0x2",
      "transactionHash": "0x09b6356f683349808f0069025422ed3c6b878123b52775ab6043b8e825e019d3",
      "transactionIndex": "0x7",
      "blockHash": "0x45804fddaf9ed6a44b3b307b0c630cb79c0dc82db11b55d049a099e9f8d962f1",
      "blockNumber": "0x5f05ed1",
      "gasUsed": "0x6ce08",
      "effectiveGasPrice": "0x3bbf07580",
      "from": "0x5a6472782a098230e04a891a78beee1b7d48e90c",
      "to": "0xd7cbec2d198357213b434e6b61cc4f80bb0feacf",
      "contractAddress": null
    },
    {
      "status": "0x1",
      "cumulativeGasUsed": "0xceb30",
      "logs": [
        {
          "address": "0x9fd6ccee1243eac173490323ed6b8b8e0c15e8e6",
          "topics": [
            "0x8c5be1e5ebec7d5bd14f71427d1e84f3dd0314c0f7b2291e5b200ac8c7c3b925",
            "0x0000000000000000000000005a6472782a098230e04a891a78beee1b7d48e90c",
            "0x000000000000000000000000d7cbec2d198357213b434e6b61cc4f80bb0feacf"
          ],
          "data": "0x0000000000000000000000000000000000000000000000056bc75e2d63100000",
          "blockHash": "0x45804fddaf9ed6a44b3b307b0c630cb79c0dc82db11b55d049a099e9f8d962f1",
          "blockNumber": "0x5f05ed1",
          "blockTimestamp": "0x69b3e99a",
          "transactionHash": "0xd1e221a03886201ccc0525a09d29502a5441ce3100ef39972147d3ab7fff4669",
          "transactionIndex": "0x8",
          "logIndex": "0x12",
          "removed": false
        }
      ],
      "logsBloom": "0x00000400000000000000000000000000000000000000000000000000000000000000000000000000000000000000000000020000000000000000000000200000000000000000000000000000001000000000040000000000000000000000000000000000000000000000000000000000000000080000000000000000000000000200000000000000000000000000000000000000000000000000000000000000020000000004000000000000000000800000000000000000000000000000000000000000000000000000000000000000000000000000000000000000000000000010000000000000000000000000000000000000000000000000000004000000",
      "type": "0x2",
      "transactionHash": "0xd1e221a03886201ccc0525a09d29502a5441ce3100ef39972147d3ab7fff4669",
      "transactionIndex": "0x8",
      "blockHash": "0x45804fddaf9ed6a44b3b307b0c630cb79c0dc82db11b55d049a099e9f8d962f1",
      "blockNumber": "0x5f05ed1",
      "gasUsed": "0xb391",
      "effectiveGasPrice": "0x3bbf07580",
      "from": "0x5a6472782a098230e04a891a78beee1b7d48e90c",
      "to": "0x9fd6ccee1243eac173490323ed6b8b8e0c15e8e6",
      "contractAddress": null
    },
    {
      "status": "0x1",
      "cumulativeGasUsed": "0x11b914",
      "logs": [
        {
          "address": "0x9fd6ccee1243eac173490323ed6b8b8e0c15e8e6",
          "topics": [
            "0xddf252ad1be2c89b69c2b068fc378daa952ba7f163c4a11628f55a4df523b3ef",
            "0x0000000000000000000000005a6472782a098230e04a891a78beee1b7d48e90c",
            "0x000000000000000000000000d7cbec2d198357213b434e6b61cc4f80bb0feacf"
          ],
          "data": "0x0000000000000000000000000000000000000000000000056bc75e2d63100000",
          "blockHash": "0x45804fddaf9ed6a44b3b307b0c630cb79c0dc82db11b55d049a099e9f8d962f1",
          "blockNumber": "0x5f05ed1",
          "blockTimestamp": "0x69b3e99a",
          "transactionHash": "0x6c37d420508761a9627efd47a12253030edcf8a2021b12d99dc8dd188920749b",
          "transactionIndex": "0x9",
          "logIndex": "0x13",
          "removed": false
        },
        {
          "address": "0x9fd6ccee1243eac173490323ed6b8b8e0c15e8e6",
          "topics": [
            "0x8c5be1e5ebec7d5bd14f71427d1e84f3dd0314c0f7b2291e5b200ac8c7c3b925",
            "0x000000000000000000000000d7cbec2d198357213b434e6b61cc4f80bb0feacf",
            "0x00000000000000000000000039d85759032fe730abacdf7aac403e8e8bb47cab"
          ],
          "data": "0x00000000000000000000000000000000000000000000000246ddf97976680000",
          "blockHash": "0x45804fddaf9ed6a44b3b307b0c630cb79c0dc82db11b55d049a099e9f8d962f1",
          "blockNumber": "0x5f05ed1",
          "blockTimestamp": "0x69b3e99a",
          "transactionHash": "0x6c37d420508761a9627efd47a12253030edcf8a2021b12d99dc8dd188920749b",
          "transactionIndex": "0x9",
          "logIndex": "0x14",
          "removed": false
        },
        {
          "address": "0x9fd6ccee1243eac173490323ed6b8b8e0c15e8e6",
          "topics": [
            "0xddf252ad1be2c89b69c2b068fc378daa952ba7f163c4a11628f55a4df523b3ef",
            "0x000000000000000000000000d7cbec2d198357213b434e6b61cc4f80bb0feacf",
            "0x00000000000000000000000039d85759032fe730abacdf7aac403e8e8bb47cab"
          ],
          "data": "0x00000000000000000000000000000000000000000000000246ddf97976680000",
          "blockHash": "0x45804fddaf9ed6a44b3b307b0c630cb79c0dc82db11b55d049a099e9f8d962f1",
          "blockNumber": "0x5f05ed1",
          "blockTimestamp": "0x69b3e99a",
          "transactionHash": "0x6c37d420508761a9627efd47a12253030edcf8a2021b12d99dc8dd188920749b",
          "transactionIndex": "0x9",
          "logIndex": "0x15",
          "removed": false
        },
        {
          "address": "0x39d85759032fe730abacdf7aac403e8e8bb47cab",
          "topics": [
            "0x2da466a7b24304f47e87fa2e1e5a81b9831ce54fec19055ce277ca2f39ba42c4",
            "0x000000000000000000000000d7cbec2d198357213b434e6b61cc4f80bb0feacf"
          ],
          "data": "0x00000000000000000000000000000000000000000000000246ddf97976680000",
          "blockHash": "0x45804fddaf9ed6a44b3b307b0c630cb79c0dc82db11b55d049a099e9f8d962f1",
          "blockNumber": "0x5f05ed1",
          "blockTimestamp": "0x69b3e99a",
          "transactionHash": "0x6c37d420508761a9627efd47a12253030edcf8a2021b12d99dc8dd188920749b",
          "transactionIndex": "0x9",
          "logIndex": "0x16",
          "removed": false
        },
        {
          "address": "0x9fd6ccee1243eac173490323ed6b8b8e0c15e8e6",
          "topics": [
            "0x8c5be1e5ebec7d5bd14f71427d1e84f3dd0314c0f7b2291e5b200ac8c7c3b925",
            "0x000000000000000000000000d7cbec2d198357213b434e6b61cc4f80bb0feacf",
            "0x00000000000000000000000014746b6f08e9512f755fbcc64e63f06397da155f"
          ],
          "data": "0x0000000000000000000000000000000000000000000000018493fba64ef00000",
          "blockHash": "0x45804fddaf9ed6a44b3b307b0c630cb79c0dc82db11b55d049a099e9f8d962f1",
          "blockNumber": "0x5f05ed1",
          "blockTimestamp": "0x69b3e99a",
          "transactionHash": "0x6c37d420508761a9627efd47a12253030edcf8a2021b12d99dc8dd188920749b",
          "transactionIndex": "0x9",
          "logIndex": "0x17",
          "removed": false
        },
        {
          "address": "0x9fd6ccee1243eac173490323ed6b8b8e0c15e8e6",
          "topics": [
            "0xddf252ad1be2c89b69c2b068fc378daa952ba7f163c4a11628f55a4df523b3ef",
            "0x000000000000000000000000d7cbec2d198357213b434e6b61cc4f80bb0feacf",
            "0x00000000000000000000000014746b6f08e9512f755fbcc64e63f06397da155f"
          ],
          "data": "0x0000000000000000000000000000000000000000000000018493fba64ef00000",
          "blockHash": "0x45804fddaf9ed6a44b3b307b0c630cb79c0dc82db11b55d049a099e9f8d962f1",
          "blockNumber": "0x5f05ed1",
          "blockTimestamp": "0x69b3e99a",
          "transactionHash": "0x6c37d420508761a9627efd47a12253030edcf8a2021b12d99dc8dd188920749b",
          "transactionIndex": "0x9",
          "logIndex": "0x18",
          "removed": false
        },
        {
          "address": "0x14746b6f08e9512f755fbcc64e63f06397da155f",
          "topics": [
            "0x2da466a7b24304f47e87fa2e1e5a81b9831ce54fec19055ce277ca2f39ba42c4",
            "0x000000000000000000000000d7cbec2d198357213b434e6b61cc4f80bb0feacf"
          ],
          "data": "0x0000000000000000000000000000000000000000000000018493fba64ef00000",
          "blockHash": "0x45804fddaf9ed6a44b3b307b0c630cb79c0dc82db11b55d049a099e9f8d962f1",
          "blockNumber": "0x5f05ed1",
          "blockTimestamp": "0x69b3e99a",
          "transactionHash": "0x6c37d420508761a9627efd47a12253030edcf8a2021b12d99dc8dd188920749b",
          "transactionIndex": "0x9",
          "logIndex": "0x19",
          "removed": false
        },
        {
          "address": "0x9fd6ccee1243eac173490323ed6b8b8e0c15e8e6",
          "topics": [
            "0x8c5be1e5ebec7d5bd14f71427d1e84f3dd0314c0f7b2291e5b200ac8c7c3b925",
            "0x000000000000000000000000d7cbec2d198357213b434e6b61cc4f80bb0feacf",
            "0x00000000000000000000000089d5c59a281da5be624d3d592ab9661b6b44451e"
          ],
          "data": "0x000000000000000000000000000000000000000000000001a055690d9db80000",
          "blockHash": "0x45804fddaf9ed6a44b3b307b0c630cb79c0dc82db11b55d049a099e9f8d962f1",
          "blockNumber": "0x5f05ed1",
          "blockTimestamp": "0x69b3e99a",
          "transactionHash": "0x6c37d420508761a9627efd47a12253030edcf8a2021b12d99dc8dd188920749b",
          "transactionIndex": "0x9",
          "logIndex": "0x1a",
          "removed": false
        },
        {
          "address": "0x9fd6ccee1243eac173490323ed6b8b8e0c15e8e6",
          "topics": [
            "0xddf252ad1be2c89b69c2b068fc378daa952ba7f163c4a11628f55a4df523b3ef",
            "0x000000000000000000000000d7cbec2d198357213b434e6b61cc4f80bb0feacf",
            "0x00000000000000000000000089d5c59a281da5be624d3d592ab9661b6b44451e"
          ],
          "data": "0x000000000000000000000000000000000000000000000001a055690d9db80000",
          "blockHash": "0x45804fddaf9ed6a44b3b307b0c630cb79c0dc82db11b55d049a099e9f8d962f1",
          "blockNumber": "0x5f05ed1",
          "blockTimestamp": "0x69b3e99a",
          "transactionHash": "0x6c37d420508761a9627efd47a12253030edcf8a2021b12d99dc8dd188920749b",
          "transactionIndex": "0x9",
          "logIndex": "0x1b",
          "removed": false
        },
        {
          "address": "0x89d5c59a281da5be624d3d592ab9661b6b44451e",
          "topics": [
            "0x2da466a7b24304f47e87fa2e1e5a81b9831ce54fec19055ce277ca2f39ba42c4",
            "0x000000000000000000000000d7cbec2d198357213b434e6b61cc4f80bb0feacf"
          ],
          "data": "0x000000000000000000000000000000000000000000000001a055690d9db80000",
          "blockHash": "0x45804fddaf9ed6a44b3b307b0c630cb79c0dc82db11b55d049a099e9f8d962f1",
          "blockNumber": "0x5f05ed1",
          "blockTimestamp": "0x69b3e99a",
          "transactionHash": "0x6c37d420508761a9627efd47a12253030edcf8a2021b12d99dc8dd188920749b",
          "transactionIndex": "0x9",
          "logIndex": "0x1c",
          "removed": false
        },
        {
          "address": "0xd7cbec2d198357213b434e6b61cc4f80bb0feacf",
          "topics": [
            "0xe012f4054d7fcf4a85897242fae97b3ccda9776e8f9194317139b56629133181",
            "0x0000000000000000000000000000000000000000000000000000000000000002",
            "0x0000000000000000000000005a6472782a098230e04a891a78beee1b7d48e90c"
          ],
          "data": "0x0000000000000000000000000000000000000000000000056bc75e2d6310000000000000000000000000000000000000000000000000000000000000000010680000000000000000000000000000000000000000000000000000000000000af00000000000000000000000000000000000000000000000000000000000000bb8",
          "blockHash": "0x45804fddaf9ed6a44b3b307b0c630cb79c0dc82db11b55d049a099e9f8d962f1",
          "blockNumber": "0x5f05ed1",
          "blockTimestamp": "0x69b3e99a",
          "transactionHash": "0x6c37d420508761a9627efd47a12253030edcf8a2021b12d99dc8dd188920749b",
          "transactionIndex": "0x9",
          "logIndex": "0x1d",
          "removed": false
        }
      ],
      "logsBloom": "0x04000400000000000000000000000000000000000000000002000000000000000000000000000000000000000000000000020400200000000000c0000020008000000000000000000000000801100080000004000000000000000000000020000000000100000000000800000000040000010008000000000000001000020000020000000000000020000000000000000100000000000000000000000008000002000000000400400000010200000080000000000100000000000000000000000000000200000000020000000000000000000400000002000000000000020000005000000000000000000000000800000000000000800000000000000c000000",
      "type": "0x2",
      "transactionHash": "0x6c37d420508761a9627efd47a12253030edcf8a2021b12d99dc8dd188920749b",
      "transactionIndex": "0x9",
      "blockHash": "0x45804fddaf9ed6a44b3b307b0c630cb79c0dc82db11b55d049a099e9f8d962f1",
      "blockNumber": "0x5f05ed1",
      "gasUsed": "0x4cde4",
      "effectiveGasPrice": "0x3bbf07580",
      "from": "0x5a6472782a098230e04a891a78beee1b7d48e90c",
      "to": "0xd7cbec2d198357213b434e6b61cc4f80bb0feacf",
      "contractAddress": null
    }
  ],
  "libraries": [],
  "pending": [],
  "returns": {},
  "timestamp": 1773441920,
  "chain": 545,
  "commit": "7d23c95"
}