{
  "transactions": [
    {
      "hash": "0x00a9964ed1769da309270b01262cd78d1b468cb146097545288ba7f2942a1922",
      "transactionType": "CALL",
      "contractName": null,
      "contractAddress": "0xc13f60749ecfcde5f79689dd2e5a361e9210f153",
      "function": "mint(uint256)",
      "arguments": [
        "1000000000000000000"
      ],
      "transaction": {
        "from": "0x5a6472782a098230e04a891a78beee1b7d48e90c",
        "to": "0xc13f60749ecfcde5f79689dd2e5a361e9210f153",
        "gas": "0x12959",
        "value": "0xde0b6b3a7640000",
        "input": "0xa0712d680000000000000000000000000000000000000000000000000de0b6b3a7640000",
        "nonce": "0x3f",
        "chainId": "0x40da"
      },
      "additionalContracts": [],
      "isFixedGasLimit": false
    },
    {
      "hash": "0x71b7e3742a189109e5f102ce89b197808f7378a92c0f27e949d3b0e68de6fd71",
      "transactionType": "CALL",
      "contractName": null,
      "contractAddress": "0xc13f60749ecfcde5f79689dd2e5a361e9210f153",
      "function": "approve(address,uint256)",
      "arguments": [
        "0x7C8484a8082b9E922b594D0Be2f82b4425B65E05",
        "1000000000000000000"
      ],
      "transaction": {
        "from": "0x5a6472782a098230e04a891a78beee1b7d48e90c",
        "to": "0xc13f60749ecfcde5f79689dd2e5a361e9210f153",
        "gas": "0xa4db",
        "value": "0x0",
        "input": "0x095ea7b30000000000000000000000007c8484a8082b9e922b594d0be2f82b4425b65e050000000000000000000000000000000000000000000000000de0b6b3a7640000",
        "nonce": "0x40",
        "chainId": "0x40da"
      },
      "additionalContracts": [],
      "isFixedGasLimit": false
    },
    {
      "hash": "0xf97c1a51e158cfbc9aec06c8936eb3f500d62a73e02e8c4383ed5413487e3f5a",
      "transactionType": "CALL",
      "contractName": null,
      "contractAddress": "0x7c8484a8082b9e922b594d0be2f82b4425b65e05",
      "function": "mint(string,bytes32,uint256,bool)",
      "arguments": [
        "0g://test-encrypted-metadata-ref-v1",
        "0xdc9889f605dcc4e60cdf58075fbd9f3c99cd82d348dba7fccbb0710ee9c8604c",
        "1000000000000000000",
        "true"
      ],
      "transaction": {
        "from": "0x5a6472782a098230e04a891a78beee1b7d48e90c",
        "to": "0x7c8484a8082b9e922b594d0be2f82b4425b65e05",
        "gas": "0x820c6",
        "value": "0x0",
        "input": "0x0d1cbfb90000000000000000000000000000000000000000000000000000000000000080dc9889f605dcc4e60cdf58075fbd9f3c99cd82d348dba7fccbb0710ee9c8604c0000000000000000000000000000000000000000000000000de0b6b3a76400000000000000000000000000000000000000000000000000000000000000000001000000000000000000000000000000000000000000000000000000000000002330673a2f2f746573742d656e637279707465642d6d657461646174612d7265662d76310000000000000000000000000000000000000000000000000000000000",
        "nonce": "0x41",
        "chainId": "0x40da"
      },
      "additionalContracts": [],
      "isFixedGasLimit": false
    }
  ],
  "receipts": [
    {
      "status": "0x1",
      "cumulativeGasUsed": "0xede0",
      "logs": [
        {
          "address": "0xc13f60749ecfcde5f79689dd2e5a361e9210f153",
          "topics": [
            "0xddf252ad1be2c89b69c2b068fc378daa952ba7f163c4a11628f55a4df523b3ef",
            "0x0000000000000000000000000000000000000000000000000000000000000000",
            "0x0000000000000000000000005a6472782a098230e04a891a78beee1b7d48e90c"
          ],
          "data": "0x0000000000000000000000000000000000000000000000000de0b6b3a7640000",
          "blockHash": "0x6ad7d4816033ef1d18bd7a02b58fa55401becef33365b1ae7bb25d08e67e3776",
          "blockNumber": "0xef5d66",
          "blockTimestamp": "0x0",
          "transactionHash": "0x00a9964ed1769da309270b01262cd78d1b468cb146097545288ba7f2942a1922",
          "transactionIndex": "0x0",
          "logIndex": "0x0",
          "removed": false
        },
        {
          "address": "0xc13f60749ecfcde5f79689dd2e5a361e9210f153",
          "topics": [
            "0x30385c845b448a36257a6a1716e6ad2e1bc2cbe333cde1e69fe849ad6511adfe",
            "0x0000000000000000000000005a6472782a098230e04a891a78beee1b7d48e90c"
          ],
          "data": "0x0000000000000000000000000000000000000000000000000de0b6b3a7640000",
          "blockHash": "0x6ad7d4816033ef1d18bd7a02b58fa55401becef33365b1ae7bb25d08e67e3776",
          "blockNumber": "0xef5d66",
          "blockTimestamp": "0x0",
          "transactionHash": "0x00a9964ed1769da309270b01262cd78d1b468cb146097545288ba7f2942a1922",
          "transactionIndex": "0x0",
          "logIndex": "0x1",
          "removed": false
        }
      ],
      "logsBloom": "0x00000000000000000000000000000000000000000000000000000000000000020000000000000000000000000000000000000000000000000000000000000000000000000000000000000008000000000000000000000000000000000000000000000000020000000000000000000800000800000000002080000011000000000200000000000000000000000000000000000000000000000000000000000000000000000004000000000000000000000000000000000000000000000000000000000002000000000000000000000000000000000040000000000000000020000000000000000000000000000000000000000000000000000000000004000000",
      "type": "0x2",
      "transactionHash": "0x00a9964ed1769da309270b01262cd78d1b468cb146097545288ba7f2942a1922",
      "transactionIndex": "0x0",
      "blockHash": "0x6ad7d4816033ef1d18bd7a02b58fa55401becef33365b1ae7bb25d08e67e3776",
      "blockNumber": "0xef5d66",
      "gasUsed": "0xede0",
      "effectiveGasPrice": "0xee6b2807",
      "from": "0x5a6472782a098230e04a891a78beee1b7d48e90c",
      "to": "0xc13f60749ecfcde5f79689dd2e5a361e9210f153",
      "contractAddress": null
    },
    {
      "status": "0x1",
      "cumulativeGasUsed": "0x171c2",
      "logs": [
        {
          "address": "0xc13f60749ecfcde5f79689dd2e5a361e9210f153",
          "topics": [
            "0x8c5be1e5ebec7d5bd14f71427d1e84f3dd0314c0f7b2291e5b200ac8c7c3b925",
            "0x0000000000000000000000005a6472782a098230e04a891a78beee1b7d48e90c",
            "0x0000000000000000000000007c8484a8082b9e922b594d0be2f82b4425b65e05"
          ],
          "data": "0x0000000000000000000000000000000000000000000000000de0b6b3a7640000",
          "blockHash": "0x6ad7d4816033ef1d18bd7a02b58fa55401becef33365b1ae7bb25d08e67e3776",
          "blockNumber": "0xef5d66",
          "blockTimestamp": "0x0",
          "transactionHash": "0x71b7e3742a189109e5f102ce89b197808f7378a92c0f27e949d3b0e68de6fd71",
          "transactionIndex": "0x1",
          "logIndex": "0x2",
          "removed": false
        }
      ],
      "logsBloom": "0x00000000000000000000000000000000000000000000000000000000000000000000000000000000000000000000000000000000000000000000000000200000000000000000000000000000000000000000000000000000000000000000000000000000000000000000000000000000000800000000002000000001000000000210000000000000000000000000000000000000000000000000000000000080020000000004000000000000000000000000000000000000000000000000000000000000000000000000000000000000000000000000000000000000000000000010000000000000000000000000000800000000000000000000000004000000",
      "type": "0x2",
      "transactionHash": "0x71b7e3742a189109e5f102ce89b197808f7378a92c0f27e949d3b0e68de6fd71",
      "transactionIndex": "0x1",
      "blockHash": "0x6ad7d4816033ef1d18bd7a02b58fa55401becef33365b1ae7bb25d08e67e3776",
      "blockNumber": "0xef5d66",
      "gasUsed": "0x83e2",
      "effectiveGasPrice": "0xee6b2807",
      "from": "0x5a6472782a098230e04a891a78beee1b7d48e90c",
      "to": "0xc13f60749ecfcde5f79689dd2e5a361e9210f153",
      "contractAddress": null
    },
    {
      "status": "0x1",
      "cumulativeGasUsed": "0x6809e",
      "logs": [
        {
          "address": "0xc13f60749ecfcde5f79689dd2e5a361e9210f153",
          "topics": [
            "0xddf252ad1be2c89b69c2b068fc378daa952ba7f163c4a11628f55a4df523b3ef",
            "0x0000000000000000000000005a6472782a098230e04a891a78beee1b7d48e90c",
            "0x0000000000000000000000007c8484a8082b9e922b594d0be2f82b4425b65e05"
          ],
          "data": "0x0000000000000000000000000000000000000000000000000de0b6b3a7640000",
          "blockHash": "0xb06399c660d39449f36dea9d0b4713516bd8f96675181f447f3c81f32b4913fe",
          "blockNumber": "0xef5d67",
          "blockTimestamp": "0x0",
          "transactionHash": "0xf97c1a51e158cfbc9aec06c8936eb3f500d62a73e02e8c4383ed5413487e3f5a",
          "transactionIndex": "0x0",
          "logIndex": "0x0",
          "removed": false
        },
        {
          "address": "0x7c8484a8082b9e922b594d0be2f82b4425b65e05",
          "topics": [
            "0xddf252ad1be2c89b69c2b068fc378daa952ba7f163c4a11628f55a4df523b3ef",
            "0x0000000000000000000000000000000000000000000000000000000000000000",
            "0x0000000000000000000000005a6472782a098230e04a891a78beee1b7d48e90c",
            "0x0000000000000000000000000000000000000000000000000000000000000002"
          ],
          "data": "0x",
          "blockHash": "0xb06399c660d39449f36dea9d0b4713516bd8f96675181f447f3c81f32b4913fe",
          "blockNumber": "0xef5d67",
          "blockTimestamp": "0x0",
          "transactionHash": "0xf97c1a51e158cfbc9aec06c8936eb3f500d62a73e02e8c4383ed5413487e3f5a",
          "transactionIndex": "0x0",
          "logIndex": "0x1",
          "removed": false
        },
        {
          "address": "0x7c8484a8082b9e922b594d0be2f82b4425b65e05",
          "topics": [
            "0x62b3ee3538c3214a76ed884fbe94f338a23d333c46a32d021174c99d41e93360",
            "0x0000000000000000000000000000000000000000000000000000000000000002",
            "0x0000000000000000000000005a6472782a098230e04a891a78beee1b7d48e90c"
          ],
          "data": "0xdc9889f605dcc4e60cdf58075fbd9f3c99cd82d348dba7fccbb0710ee9c8604c00000000000000000000000000000000000000000000000000000000000000600000000000000000000000000000000000000000000000000de0b6b3a7640000000000000000000000000000000000000000000000000000000000000000002330673a2f2f746573742d656e637279707465642d6d657461646174612d7265662d76310000000000000000000000000000000000000000000000000000000000",
          "blockHash": "0xb06399c660d39449f36dea9d0b4713516bd8f96675181f447f3c81f32b4913fe",
          "blockNumber": "0xef5d67",
          "blockTimestamp": "0x0",
          "transactionHash": "0xf97c1a51e158cfbc9aec06c8936eb3f500d62a73e02e8c4383ed5413487e3f5a",
          "transactionIndex": "0x0",
          "logIndex": "0x2",
          "removed": false
        }
      ],
      "logsBloom": "0x04000000000000000000000000000000000000000000000060000000000000000010000000000000000000000000000000000000000000000000000000000000000000000000000000000008000000000000000000000000000000000000000000000000020000000000000000000800000800000000002000000011000000000210000000000000000000000000000000000000800000000000000000000080000000000004000000000100000000000000000000000000000000000000000000000002000000000000000000000000000000000000000000000000000020000000000000000000000000000000000800000000008000200800000004000000",
      "type": "0x2",
      "transactionHash": "0xf97c1a51e158cfbc9aec06c8936eb3f500d62a73e02e8c4383ed5413487e3f5a",
      "transactionIndex": "0x0",
      "blockHash": "0xb06399c660d39449f36dea9d0b4713516bd8f96675181f447f3c81f32b4913fe",
      "blockNumber": "0xef5d67",
      "gasUsed": "0x6809e",
      "effectiveGasPrice": "0xee6b2807",
      "from": "0x5a6472782a098230e04a891a78beee1b7d48e90c",
      "to": "0x7c8484a8082b9e922b594d0be2f82b4425b65e05",
      "contractAddress": null
    }
  ],
  "libraries": [],
  "pending": [],
  "returns": {},
  "timestamp": 1768083385,
  "chain": 16602,
  "commit": "db54825"
}