{
  "transactions": [
    {
      "hash": "0xd1e43f42914f59ac88af06e5da0dd1ba4a671167e7b3df443db027a84ceeb1a9",
      "transactionType": "CALL",
      "contractName": null,
      "contractAddress": "0xc13f60749ecfcde5f79689dd2e5a361e9210f153",
      "function": "mint(uint256)",
      "arguments": [
        "1000000000000000000"
      ],
      "transaction": {
        "from": "0x5a6472782a098230e04a891a78beee1b7d48e90c",
        "to": "0xc13f60749ecfcde5f79689dd2e5a361e9210f153",
        "gas": "0x17517",
        "value": "0xde0b6b3a7640000",
        "input": "0xa0712d680000000000000000000000000000000000000000000000000de0b6b3a7640000",
        "nonce": "0x1a",
        "chainId": "0x40da"
      },
      "additionalContracts": [],
      "isFixedGasLimit": false
    },
    {
      "hash": "0xf1ea9882eb2f1996361d7202995c188011099a216c7061de4f758fca5f551fa6",
      "transactionType": "CALL",
      "contractName": null,
      "contractAddress": "0xc13f60749ecfcde5f79689dd2e5a361e9210f153",
      "function": "approve(address,uint256)",
      "arguments": [
        "0x7C8484a8082b9E922b594D0Be2f82b4425B65E05",
        "1000000000000000000"
      ],
      "transaction": {
        "from": "0x5a6472782a098230e04a891a78beee1b7d48e90c",
        "to": "0xc13f60749ecfcde5f79689dd2e5a361e9210f153",
        "gas": "0xf7f5",
        "value": "0x0",
        "input": "0x095ea7b30000000000000000000000007c8484a8082b9e922b594d0be2f82b4425b65e050000000000000000000000000000000000000000000000000de0b6b3a7640000",
        "nonce": "0x1b",
        "chainId": "0x40da"
      },
      "additionalContracts": [],
      "isFixedGasLimit": false
    },
    {
      "hash": "0xc6360740292c8198679c405b20e5f06a0ae65d8d4eb8b000e7bfd1001c4e7b59",
      "transactionType": "CALL",
      "contractName": null,
      "contractAddress": "0x7c8484a8082b9e922b594d0be2f82b4425b65e05",
      "function": "mint(string,bytes32,uint256,bool)",
      "arguments": [
        "0g://test-encrypted-metadata-ref-v1",
        "0x9e010a20bd2fe2b4e98fcc9b1b5df0abef1a73c50ed2811792ca58f16644ac30",
        "1000000000000000000",
        "true"
      ],
      "transaction": {
        "from": "0x5a6472782a098230e04a891a78beee1b7d48e90c",
        "to": "0x7c8484a8082b9e922b594d0be2f82b4425b65e05",
        "gas": "0x8c42a",
        "value": "0x0",
        "input": "0x0d1cbfb900000000000000000000000000000000000000000000000000000000000000809e010a20bd2fe2b4e98fcc9b1b5df0abef1a73c50ed2811792ca58f16644ac300000000000000000000000000000000000000000000000000de0b6b3a76400000000000000000000000000000000000000000000000000000000000000000001000000000000000000000000000000000000000000000000000000000000002330673a2f2f746573742d656e637279707465642d6d657461646174612d7265662d76310000000000000000000000000000000000000000000000000000000000",
        "nonce": "0x1c",
        "chainId": "0x40da"
      },
      "additionalContracts": [],
      "isFixedGasLimit": false
    }
  ],
  "receipts": [
    {
      "status": "0x1",
      "cumulativeGasUsed": "0x12a78",
      "logs": [
        {
          "address": "0xc13f60749ecfcde5f79689dd2e5a361e9210f153",
          "topics": [
            "0xddf252ad1be2c89b69c2b068fc378daa952ba7f163c4a11628f55a4df523b3ef",
            "0x0000000000000000000000000000000000000000000000000000000000000000",
            "0x0000000000000000000000005a6472782a098230e04a891a78beee1b7d48e90c"
          ],
          "data": "0x0000000000000000000000000000000000000000000000000de0b6b3a7640000",
          "blockHash": "0x31abba6ef00a5236f571bb2949fcada2c7374cb48925858a7b6fda19535c9f1a",
          "blockNumber": "0xec497d",
          "blockTimestamp": "0x0",
          "transactionHash": "0xd1e43f42914f59ac88af06e5da0dd1ba4a671167e7b3df443db027a84ceeb1a9",
          "transactionIndex": "0x0",
          "logIndex": "0x0",
          "removed": false
        },
        {
          "address": "0xc13f60749ecfcde5f79689dd2e5a361e9210f153",
          "topics": [
            "0x30385c845b448a36257a6a1716e6ad2e1bc2cbe333cde1e69fe849ad6511adfe",
            "0x0000000000000000000000005a6472782a098230e04a891a78beee1b7d48e90c"
          ],
          "data": "0x0000000000000000000000000000000000000000000000000de0b6b3a7640000",
          "blockHash": "0x31abba6ef00a5236f571bb2949fcada2c7374cb48925858a7b6fda19535c9f1a",
          "blockNumber": "0xec497d",
          "blockTimestamp": "0x0",
          "transactionHash": "0xd1e43f42914f59ac88af06e5da0dd1ba4a671167e7b3df443db027a84ceeb1a9",
          "transactionIndex": "0x0",
          "logIndex": "0x1",
          "removed": false
        }
      ],
      "logsBloom": "0x00000000000000000000000000000000000000000000000000000000000000020000000000000000000000000000000000000000000000000000000000000000000000000000000000000008000000000000000000000000000000000000000000000000020000000000000000000800000800000000002080000011000000000200000000000000000000000000000000000000000000000000000000000000000000000004000000000000000000000000000000000000000000000000000000000002000000000000000000000000000000000040000000000000000020000000000000000000000000000000000000000000000000000000000004000000",
      "type": "0x0",
      "transactionHash": "0xd1e43f42914f59ac88af06e5da0dd1ba4a671167e7b3df443db027a84ceeb1a9",
      "transactionIndex": "0x0",
      "blockHash": "0x31abba6ef00a5236f571bb2949fcada2c7374cb48925858a7b6fda19535c9f1a",
      "blockNumber": "0xec497d",
      "gasUsed": "0x12a78",
      "effectiveGasPrice": "0xb2d05e00",
      "from": "0x5a6472782a098230e04a891a78beee1b7d48e90c",
      "to": "0xc13f60749ecfcde5f79689dd2e5a361e9210f153",
      "contractAddress": null
    },
    {
      "status": "0x1",
      "cumulativeGasUsed": "0x1f0d5",
      "logs": [
        {
          "address": "0xc13f60749ecfcde5f79689dd2e5a361e9210f153",
          "topics": [
            "0x8c5be1e5ebec7d5bd14f71427d1e84f3dd0314c0f7b2291e5b200ac8c7c3b925",
            "0x0000000000000000000000005a6472782a098230e04a891a78beee1b7d48e90c",
            "0x0000000000000000000000007c8484a8082b9e922b594d0be2f82b4425b65e05"
          ],
          "data": "0x0000000000000000000000000000000000000000000000000de0b6b3a7640000",
          "blockHash": "0x31abba6ef00a5236f571bb2949fcada2c7374cb48925858a7b6fda19535c9f1a",
          "blockNumber": "0xec497d",
          "blockTimestamp": "0x0",
          "transactionHash": "0xf1ea9882eb2f1996361d7202995c188011099a216c7061de4f758fca5f551fa6",
          "transactionIndex": "0x1",
          "logIndex": "0x2",
          "removed": false
        }
      ],
      "logsBloom": "0x00000000000000000000000000000000000000000000000000000000000000000000000000000000000000000000000000000000000000000000000000200000000000000000000000000000000000000000000000000000000000000000000000000000000000000000000000000000000800000000002000000001000000000210000000000000000000000000000000000000000000000000000000000080020000000004000000000000000000000000000000000000000000000000000000000000000000000000000000000000000000000000000000000000000000000010000000000000000000000000000800000000000000000000000004000000",
      "type": "0x0",
      "transactionHash": "0xf1ea9882eb2f1996361d7202995c188011099a216c7061de4f758fca5f551fa6",
      "transactionIndex": "0x1",
      "blockHash": "0x31abba6ef00a5236f571bb2949fcada2c7374cb48925858a7b6fda19535c9f1a",
      "blockNumber": "0xec497d",
      "gasUsed": "0xc65d",
      "effectiveGasPrice": "0xb2d05e00",
      "from": "0x5a6472782a098230e04a891a78beee1b7d48e90c",
      "to": "0xc13f60749ecfcde5f79689dd2e5a361e9210f153",
      "contractAddress": null
    },
    {
      "status": "0x1",
      "cumulativeGasUsed": "0x8f429",
      "logs": [
        {
          "address": "0xc13f60749ecfcde5f79689dd2e5a361e9210f153",
          "topics": [
            "0xddf252ad1be2c89b69c2b068fc378daa952ba7f163c4a11628f55a4df523b3ef",
            "0x0000000000000000000000005a6472782a098230e04a891a78beee1b7d48e90c",
            "0x0000000000000000000000007c8484a8082b9e922b594d0be2f82b4425b65e05"
          ],
          "data": "0x0000000000000000000000000000000000000000000000000de0b6b3a7640000",
          "blockHash": "0x31abba6ef00a5236f571bb2949fcada2c7374cb48925858a7b6fda19535c9f1a",
          "blockNumber": "0xec497d",
          "blockTimestamp": "0x0",
          "transactionHash": "0xc6360740292c8198679c405b20e5f06a0ae65d8d4eb8b000e7bfd1001c4e7b59",
          "transactionIndex": "0x2",
          "logIndex": "0x3",
          "removed": false
        },
        {
          "address": "0x7c8484a8082b9e922b594d0be2f82b4425b65e05",
          "topics": [
            "0xddf252ad1be2c89b69c2b068fc378daa952ba7f163c4a11628f55a4df523b3ef",
            "0x0000000000000000000000000000000000000000000000000000000000000000",
            "0x0000000000000000000000005a6472782a098230e04a891a78beee1b7d48e90c",
            "0x0000000000000000000000000000000000000000000000000000000000000001"
          ],
          "data": "0x",
          "blockHash": "0x31abba6ef00a5236f571bb2949fcada2c7374cb48925858a7b6fda19535c9f1a",
          "blockNumber": "0xec497d",
          "blockTimestamp": "0x0",
          "transactionHash": "0xc6360740292c8198679c405b20e5f06a0ae65d8d4eb8b000e7bfd1001c4e7b59",
          "transactionIndex": "0x2",
          "logIndex": "0x4",
          "removed": false
        },
        {
          "address": "0x7c8484a8082b9e922b594d0be2f82b4425b65e05",
          "topics": [
            "0x62b3ee3538c3214a76ed884fbe94f338a23d333c46a32d021174c99d41e93360",
            "0x0000000000000000000000000000000000000000000000000000000000000001",
            "0x0000000000000000000000005a6472782a098230e04a891a78beee1b7d48e90c"
          ],
          "data": "0x9e010a20bd2fe2b4e98fcc9b1b5df0abef1a73c50ed2811792ca58f16644ac3000000000000000000000000000000000000000000000000000000000000000600000000000000000000000000000000000000000000000000de0b6b3a7640000000000000000000000000000000000000000000000000000000000000000002330673a2f2f746573742d656e637279707465642d6d657461646174612d7265662d76310000000000000000000000000000000000000000000000000000000000",
          "blockHash": "0x31abba6ef00a5236f571bb2949fcada2c7374cb48925858a7b6fda19535c9f1a",
          "blockNumber": "0xec497d",
          "blockTimestamp": "0x0",
          "transactionHash": "0xc6360740292c8198679c405b20e5f06a0ae65d8d4eb8b000e7bfd1001c4e7b59",
          "transactionIndex": "0x2",
          "logIndex": "0x5",
          "removed": false
        }
      ],
      "logsBloom": "0x00000000000000000000000000000000000000000000000060000000000000000010000000000000000000000000000000000000000000000000000000040000000000000000000000000008000000000000000000040000000000000000000000000000020000000000000000000800000800000000002000000011000000000210000000000000000000000000000000000000800000000000000000000080000000000004000000000000000000000000000000000000000000000000000000000002000000000000000000000000000000000000000000000000000060000000000000000000000000000000000800000000000000200800000004000000",
      "type": "0x0",
      "transactionHash": "0xc6360740292c8198679c405b20e5f06a0ae65d8d4eb8b000e7bfd1001c4e7b59",
      "transactionIndex": "0x2",
      "blockHash": "0x31abba6ef00a5236f571bb2949fcada2c7374cb48925858a7b6fda19535c9f1a",
      "blockNumber": "0xec497d",
      "gasUsed": "0x70354",
      "effectiveGasPrice": "0xb2d05e00",
      "from": "0x5a6472782a098230e04a891a78beee1b7d48e90c",
      "to": "0x7c8484a8082b9e922b594d0be2f82b4425b65e05",
      "contractAddress": null
    }
  ],
  "libraries": [],
  "pending": [],
  "returns": {},
  "timestamp": 1767984761,
  "chain": 16602,
  "commit": "bd37189"
}