{
  "transactions": [
    {
      "hash": "0x22ebaa73387ab423ef7664503a4214d8fba2e2ea0380248520ccb8a71b20812a",
      "transactionType": "CALL",
      "contractName": null,
      "contractAddress": "0x7c8484a8082b9e922b594d0be2f82b4425b65e05",
      "function": "authorizeUsage(uint256,address,uint256)",
      "arguments": [
        "1",
        "0x1234567890123456789012345678901234567890",
        "2592000"
      ],
      "transaction": {
        "from": "0x5a6472782a098230e04a891a78beee1b7d48e90c",
        "to": "0x7c8484a8082b9e922b594d0be2f82b4425b65e05",
        "gas": "0x19b63",
        "value": "0x0",
        "input": "0xe1022d6a000000000000000000000000000000000000000000000000000000000000000100000000000000000000000012345678901234567890123456789012345678900000000000000000000000000000000000000000000000000000000000278d00",
        "nonce": "0x1d",
        "chainId": "0x40da"
      },
      "additionalContracts": [],
      "isFixedGasLimit": false
    },
    {
      "hash": "0x6f9cd7ac8b20e4a9e274a557969d5012553d371610db0992a129c23cd2d58f0f",
      "transactionType": "CALL",
      "contractName": null,
      "contractAddress": "0x7c8484a8082b9e922b594d0be2f82b4425b65e05",
      "function": "revokeUsage(uint256,address)",
      "arguments": [
        "1",
        "0x1234567890123456789012345678901234567890"
      ],
      "transaction": {
        "from": "0x5a6472782a098230e04a891a78beee1b7d48e90c",
        "to": "0x7c8484a8082b9e922b594d0be2f82b4425b65e05",
        "gas": "0x9c53",
        "value": "0x0",
        "input": "0x57d89af000000000000000000000000000000000000000000000000000000000000000010000000000000000000000001234567890123456789012345678901234567890",
        "nonce": "0x1e",
        "chainId": "0x40da"
      },
      "additionalContracts": [],
      "isFixedGasLimit": false
    }
  ],
  "receipts": [
    {
      "status": "0x1",
      "cumulativeGasUsed": "0x1491c",
      "logs": [
        {
          "address": "0x7c8484a8082b9e922b594d0be2f82b4425b65e05",
          "topics": [
            "0xae16de5c9c7bbe3f00dab40b795d2a89cdcd4d8624d67eada25c215a9335844f",
            "0x0000000000000000000000000000000000000000000000000000000000000001",
            "0x0000000000000000000000001234567890123456789012345678901234567890"
          ],
          "data": "0x000000000000000000000000000000000000000000000000000000006988dbb0",
          "blockHash": "0xdd2c3ed010d4f5dc8cb0c659c7af7812720025154b1bd17860d65ebfcd928525",
          "blockNumber": "0xec49fb",
          "blockTimestamp": "0x0",
          "transactionHash": "0x22ebaa73387ab423ef7664503a4214d8fba2e2ea0380248520ccb8a71b20812a",
          "transactionIndex": "0x0",
          "logIndex": "0x0",
          "removed": false
        }
      ],
      "logsBloom": "0x00000000000000000000000000000000008000000020000040000000000000000010000000000000000000000000000000000000000000000000000000040000000000000000000000000000000000000000000000040000000000000000001000000000000000000000000000000000000000000000000000000000000000000000000000000000020000000000000000000000800000000000000000000000000000000000000000000100000000800000000000000000000000000000000000000000000000000000000000000000000000000000000000000000000040000000000000000000000000000000000000000000000000000000000000000000",
      "type": "0x0",
      "transactionHash": "0x22ebaa73387ab423ef7664503a4214d8fba2e2ea0380248520ccb8a71b20812a",
      "transactionIndex": "0x0",
      "blockHash": "0xdd2c3ed010d4f5dc8cb0c659c7af7812720025154b1bd17860d65ebfcd928525",
      "blockNumber": "0xec49fb",
      "gasUsed": "0x1491c",
      "effectiveGasPrice": "0xb2d05e00",
      "from": "0x5a6472782a098230e04a891a78beee1b7d48e90c",
      "to": "0x7c8484a8082b9e922b594d0be2f82b4425b65e05",
      "contractAddress": null
    },
    {
      "status": "0x1",
      "cumulativeGasUsed": "0x1c62b",
      "logs": [
        {
          "address": "0x7c8484a8082b9e922b594d0be2f82b4425b65e05",
          "topics": [
            "0x1ba7e5fd98e9d431d96d40388196be40e63f5087db78ee7ac286e3d6568fce4e",
            "0x0000000000000000000000000000000000000000000000000000000000000001",
            "0x0000000000000000000000001234567890123456789012345678901234567890"
          ],
          "data": "0x",
          "blockHash": "0xdd2c3ed010d4f5dc8cb0c659c7af7812720025154b1bd17860d65ebfcd928525",
          "blockNumber": "0xec49fb",
          "blockTimestamp": "0x0",
          "transactionHash": "0x6f9cd7ac8b20e4a9e274a557969d5012553d371610db0992a129c23cd2d58f0f",
          "transactionIndex": "0x1",
          "logIndex": "0x1",
          "removed": false
        }
      ],
      "logsBloom": "0x00000000000000000020000000000000000000000020000040000000000000000010000000000000000000000000000000000000000000000000000000040000000000000000000000000000000000000000000000040000000000000000000000000000000000000000000000000000000000000000000000000000000000000000000000000000000000000000000000000000800000000000000000000000000000000000000000000100000000800000000000000000000000000000000000000080000080000000000000000000000000000000000000000000000040000000000000000000000000000000000000000000000000000000000000000000",
      "type": "0x0",
      "transactionHash": "0x6f9cd7ac8b20e4a9e274a557969d5012553d371610db0992a129c23cd2d58f0f",
      "transactionIndex": "0x1",
      "blockHash": "0xdd2c3ed010d4f5dc8cb0c659c7af7812720025154b1bd17860d65ebfcd928525",
      "blockNumber": "0xec49fb",
      "gasUsed": "0x7d0f",
      "effectiveGasPrice": "0xb2d05e00",
      "from": "0x5a6472782a098230e04a891a78beee1b7d48e90c",
      "to": "0x7c8484a8082b9e922b594d0be2f82b4425b65e05",
      "contractAddress": null
    }
  ],
  "libraries": [],
  "pending": [],
  "returns": {},
  "timestamp": 1767984823,
  "chain": 16602,
  "commit": "bd37189"
}