{
  "transactions": [
    {
      "hash": "0x4966e406eb74ceb92a83901c2074d145669dcb1c42828d48bc2f262b9aeee0e8",
      "transactionType": "CALL",
      "contractName": null,
      "contractAddress": "0x9fd6ccee1243eac173490323ed6b8b8e0c15e8e6",
      "function": "mint(uint256)",
      "arguments": [
        "100000000000000000000"
      ],
      "transaction": {
        "from": "0x5a6472782a098230e04a891a78beee1b7d48e90c",
        "to": "0x9fd6ccee1243eac173490323ed6b8b8e0c15e8e6",
        "gas": "0x118e4",
        "value": "0x56bc75e2d63100000",
        "input": "0xa0712d680000000000000000000000000000000000000000000000056bc75e2d63100000",
        "nonce": "0x0",
        "chainId": "0x221"
      },
      "additionalContracts": [],
      "isFixedGasLimit": false
    }
  ],
  "receipts": [
    {
      "status": "0x1",
      "cumulativeGasUsed": "0xcb5d",
      "logs": [
        {
          "address": "0x9fd6ccee1243eac173490323ed6b8b8e0c15e8e6",
          "topics": [
            "0xddf252ad1be2c89b69c2b068fc378daa952ba7f163c4a11628f55a4df523b3ef",
            "0x0000000000000000000000000000000000000000000000000000000000000000",
            "0x0000000000000000000000005a6472782a098230e04a891a78beee1b7d48e90c"
          ],
          "data": "0x0000000000000000000000000000000000000000000000056bc75e2d63100000",
          "blockHash": "0x91405c68c45442ae582d154cc9e6d247408c457c853ff74f33b399b29137568c",
          "blockNumber": "0x54c6f59",
          "blockTimestamp": "0x696275de",
          "transactionHash": "0x4966e406eb74ceb92a83901c2074d145669dcb1c42828d48bc2f262b9aeee0e8",
          "transactionIndex": "0x0",
          "logIndex": "0x0",
          "removed": false
        },
        {
          "address": "0x9fd6ccee1243eac173490323ed6b8b8e0c15e8e6",
          "topics": [
            "0x30385c845b448a36257a6a1716e6ad2e1bc2cbe333cde1e69fe849ad6511adfe",
            "0x0000000000000000000000005a6472782a098230e04a891a78beee1b7d48e90c"
          ],
          "data": "0x0000000000000000000000000000000000000000000000056bc75e2d63100000",
          "blockHash": "0x91405c68c45442ae582d154cc9e6d247408c457c853ff74f33b399b29137568c",
          "blockNumber": "0x54c6f59",
          "blockTimestamp": "0x696275de",
          "transactionHash": "0x4966e406eb74ceb92a83901c2074d145669dcb1c42828d48bc2f262b9aeee0e8",
          "transactionIndex": "0x0",
          "logIndex": "0x1",
          "removed": false
        }
      ],
      "logsBloom": "0x00000000000000000000000000000000000000000000000000000000000000020000000000000000000000000000000000020000000000000000000000000000000000000000000000000008001000000000000000000000000000000000000000000000020000000000000000000800000000000000000080000010000000000200000000000000000000000000000000000000000000000000000000000000000000000004000000000000000000800000000000000000000000000000000000000002000000000000000000000000000000000040000000000000000020000000000000000000000000000000000000000000000000000000000004000000",
      "type": "0x2",
      "transactionHash": "0x4966e406eb74ceb92a83901c2074d145669dcb1c42828d48bc2f262b9aeee0e8",
      "transactionIndex": "0x0",
      "blockHash": "0x91405c68c45442ae582d154cc9e6d247408c457c853ff74f33b399b29137568c",
      "blockNumber": "0x54c6f59",
      "gasUsed": "0xcb5d",
      "effectiveGasPrice": "0x3bbf07580",
      "from": "0x5a6472782a098230e04a891a78beee1b7d48e90c",
      "to": "0x9fd6ccee1243eac173490323ed6b8b8e0c15e8e6",
      "contractAddress": null
    }
  ],
  "libraries": [],
  "pending": [],
  "returns": {},
  "timestamp": 1768060385,
  "chain": 545,
  "commit": "bd37189"
}